{
  "abi": [
    {
      "inputs": [
        {
          "internalType": "address",
          "name": "tokenA_",
          "type": "address"
        },
        {
          "internalType": "address",
          "name": "tokenB_",
          "type": "address"
        }
      ],
      "stateMutability": "nonpayable",
      "type": "constructor"
    },
    {
      "inputs": [
        {
          "internalType": "address",
          "name": "maker",
          "type": "address"
        }
      ],
      "name": "OnlyMakerError",
      "type": "error"
    },
    {
      "inputs": [],
      "name": "OrderDoesNotExistError",
      "type": "error"
    },
    {
      "inputs": [],
      "name": "PriceBiggerThanNextError",
      "type": "error"
    },
    {
      "inputs": [],
      "name": "PriceBracketDoesNotExistError",
      "type": "error"
    },
    {
      "inputs": [],
      "name": "PriceSmallerThanPrevError",
      "type": "error"
    },
    {
      "inputs": [
        {
          "internalType": "uint256",
          "name": "amount",
          "type": "uint256"
        }
      ],
      "name": "SameAmountError",
      "type": "error"
    },
    {
      "anonymous": false,
      "inputs": [
        {
          "indexed": true,
          "internalType": "uint48",
          "name": "orderId",
          "type": "uint48"
        },
        {
          "indexed": true,
          "internalType": "uint128",
          "name": "price",
          "type": "uint128"
        },
        {
          "indexed": true,
          "internalType": "address",
          "name": "maker",
          "type": "address"
        },
        {
          "indexed": false,
          "internalType": "uint256",
          "name": "amount",
          "type": "uint256"
        }
      ],
      "name": "BuyLimitOrderCancelled",
      "type": "event"
    },
    {
      "anonymous": false,
      "inputs": [
        {
          "indexed": true,
          "internalType": "uint48",
          "name": "orderId",
          "type": "uint48"
        },
        {
          "indexed": true,
          "internalType": "uint128",
          "name": "price",
          "type": "uint128"
        },
        {
          "indexed": true,
          "internalType": "address",
          "name": "maker",
          "type": "address"
        },
        {
          "indexed": false,
          "internalType": "uint256",
          "name": "amount",
          "type": "uint256"
        }
      ],
      "name": "BuyLimitOrderFilled",
      "type": "event"
    },
    {
      "anonymous": false,
      "inputs": [
        {
          "indexed": true,
          "internalType": "uint48",
          "name": "orderId",
          "type": "uint48"
        },
        {
          "indexed": true,
          "internalType": "uint128",
          "name": "price",
          "type": "uint128"
        },
        {
          "indexed": true,
          "internalType": "address",
          "name": "maker",
          "type": "address"
        },
        {
          "indexed": false,
          "internalType": "uint256",
          "name": "amount",
          "type": "uint256"
        }
      ],
      "name": "BuyLimitOrderModified",
      "type": "event"
    },
    {
      "anonymous": false,
      "inputs": [
        {
          "indexed": true,
          "internalType": "uint48",
          "name": "orderId",
          "type": "uint48"
        },
        {
          "indexed": true,
          "internalType": "uint128",
          "name": "price",
          "type": "uint128"
        },
        {
          "indexed": true,
          "internalType": "address",
          "name": "maker",
          "type": "address"
        },
        {
          "indexed": false,
          "internalType": "uint256",
          "name": "amount",
          "type": "uint256"
        }
      ],
      "name": "BuyLimitOrderPlaced",
      "type": "event"
    },
    {
      "anonymous": false,
      "inputs": [
        {
          "indexed": true,
          "internalType": "uint256",
          "name": "price",
          "type": "uint256"
        },
        {
          "indexed": true,
          "internalType": "address",
          "name": "maker",
          "type": "address"
        },
        {
          "indexed": false,
          "internalType": "uint256",
          "name": "amount",
          "type": "uint256"
        }
      ],
      "name": "BuyMarketOrderFilled",
      "type": "event"
    },
    {
      "anonymous": false,
      "inputs": [
        {
          "indexed": true,
          "internalType": "uint48",
          "name": "orderId",
          "type": "uint48"
        },
        {
          "indexed": true,
          "internalType": "uint128",
          "name": "price",
          "type": "uint128"
        },
        {
          "indexed": true,
          "internalType": "address",
          "name": "maker",
          "type": "address"
        },
        {
          "indexed": false,
          "internalType": "uint256",
          "name": "amount",
          "type": "uint256"
        }
      ],
      "name": "SellLimitOrderCancelled",
      "type": "event"
    },
    {
      "anonymous": false,
      "inputs": [
        {
          "indexed": true,
          "internalType": "uint48",
          "name": "orderId",
          "type": "uint48"
        },
        {
          "indexed": true,
          "internalType": "uint128",
          "name": "price",
          "type": "uint128"
        },
        {
          "indexed": true,
          "internalType": "address",
          "name": "maker",
          "type": "address"
        },
        {
          "indexed": false,
          "internalType": "uint256",
          "name": "amount",
          "type": "uint256"
        }
      ],
      "name": "SellLimitOrderFilled",
      "type": "event"
    },
    {
      "anonymous": false,
      "inputs": [
        {
          "indexed": true,
          "internalType": "uint48",
          "name": "orderId",
          "type": "uint48"
        },
        {
          "indexed": true,
          "internalType": "uint128",
          "name": "price",
          "type": "uint128"
        },
        {
          "indexed": true,
          "internalType": "address",
          "name": "maker",
          "type": "address"
        },
        {
          "indexed": false,
          "internalType": "uint256",
          "name": "amount",
          "type": "uint256"
        }
      ],
      "name": "SellLimitOrderModified",
      "type": "event"
    },
    {
      "anonymous": false,
      "inputs": [
        {
          "indexed": true,
          "internalType": "uint48",
          "name": "orderId",
          "type": "uint48"
        },
        {
          "indexed": true,
          "internalType": "uint128",
          "name": "price",
          "type": "uint128"
        },
        {
          "indexed": true,
          "internalType": "address",
          "name": "maker",
          "type": "address"
        },
        {
          "indexed": false,
          "internalType": "uint256",
          "name": "amount",
          "type": "uint256"
        }
      ],
      "name": "SellLimitOrderPlaced",
      "type": "event"
    },
    {
      "anonymous": false,
      "inputs": [
        {
          "indexed": true,
          "internalType": "uint256",
          "name": "price",
          "type": "uint256"
        },
        {
          "indexed": true,
          "internalType": "address",
          "name": "maker",
          "type": "address"
        },
        {
          "indexed": false,
          "internalType": "uint256",
          "name": "amount",
          "type": "uint256"
        }
      ],
      "name": "SellMarketOrderFilled",
      "type": "event"
    },
    {
      "inputs": [
        {
          "internalType": "uint256",
          "name": "amount_",
          "type": "uint256"
        }
      ],
      "name": "amountPlusFee",
      "outputs": [
        {
          "internalType": "uint256",
          "name": "",
          "type": "uint256"
        }
      ],
      "stateMutability": "pure",
      "type": "function"
    },
    {
      "inputs": [],
      "name": "basisPoint",
      "outputs": [
        {
          "internalType": "uint256",
          "name": "",
          "type": "uint256"
        }
      ],
      "stateMutability": "pure",
      "type": "function"
    },
    {
      "inputs": [
        {
          "internalType": "uint128",
          "name": "price_",
          "type": "uint128"
        },
        {
          "internalType": "uint48",
          "name": "orderId_",
          "type": "uint48"
        }
      ],
      "name": "buyOrderAtPrice",
      "outputs": [
        {
          "components": [
            {
              "internalType": "address",
              "name": "maker",
              "type": "address"
            },
            {
              "internalType": "uint48",
              "name": "prev",
              "type": "uint48"
            },
            {
              "internalType": "uint48",
              "name": "next",
              "type": "uint48"
            },
            {
              "internalType": "uint256",
              "name": "amount",
              "type": "uint256"
            }
          ],
          "internalType": "struct LibLinkedOrders.Order",
          "name": "order_",
          "type": "tuple"
        }
      ],
      "stateMutability": "view",
      "type": "function"
    },
    {
      "inputs": [],
      "name": "buyOrdersAndPrices",
      "outputs": [
        {
          "components": [
            {
              "internalType": "uint128",
              "name": "price",
              "type": "uint128"
            },
            {
              "components": [
                {
                  "internalType": "uint48",
                  "name": "id",
                  "type": "uint48"
                },
                {
                  "internalType": "address",
                  "name": "maker",
                  "type": "address"
                },
                {
                  "internalType": "uint256",
                  "name": "amount",
                  "type": "uint256"
                }
              ],
              "internalType": "struct LibLinkedOrders.ViewOrder[]",
              "name": "orders",
              "type": "tuple[]"
            }
          ],
          "internalType": "struct LibPriceBrackets.OrdersByPrice[]",
          "name": "orders_",
          "type": "tuple[]"
        }
      ],
      "stateMutability": "view",
      "type": "function"
    },
    {
      "inputs": [
        {
          "internalType": "uint128",
          "name": "price_",
          "type": "uint128"
        }
      ],
      "name": "buyOrdersAtPrice",
      "outputs": [
        {
          "components": [
            {
              "internalType": "uint48",
              "name": "id",
              "type": "uint48"
            },
            {
              "internalType": "address",
              "name": "maker",
              "type": "address"
            },
            {
              "internalType": "uint256",
              "name": "amount",
              "type": "uint256"
            }
          ],
          "internalType": "struct LibLinkedOrders.ViewOrder[]",
          "name": "orders_",
          "type": "tuple[]"
        }
      ],
      "stateMutability": "view",
      "type": "function"
    },
    {
      "inputs": [],
      "name": "buyOrdersPrices",
      "outputs": [
        {
          "internalType": "uint128[]",
          "name": "prices_",
          "type": "uint128[]"
        }
      ],
      "stateMutability": "view",
      "type": "function"
    },
    {
      "inputs": [],
      "name": "feeRecipient",
      "outputs": [
        {
          "internalType": "address",
          "name": "",
          "type": "address"
        }
      ],
      "stateMutability": "view",
      "type": "function"
    },
    {
      "inputs": [
        {
          "internalType": "uint128",
          "name": "price_",
          "type": "uint128"
        }
      ],
      "name": "invertPrice",
      "outputs": [
        {
          "internalType": "uint128",
          "name": "",
          "type": "uint128"
        }
      ],
      "stateMutability": "pure",
      "type": "function"
    },
    {
      "inputs": [
        {
          "internalType": "uint48",
          "name": "orderId_",
          "type": "uint48"
        },
        {
          "internalType": "uint128",
          "name": "oldPrice_",
          "type": "uint128"
        },
        {
          "internalType": "uint128",
          "name": "newPrice_",
          "type": "uint128"
        },
        {
          "internalType": "uint256",
          "name": "newAmount_",
          "type": "uint256"
        },
        {
          "internalType": "uint128[]",
          "name": "prevs_",
          "type": "uint128[]"
        },
        {
          "internalType": "uint128[]",
          "name": "nexts_",
          "type": "uint128[]"
        }
      ],
      "name": "modifyBuyLimitOrder",
      "outputs": [
        {
          "internalType": "uint48",
          "name": "",
          "type": "uint48"
        }
      ],
      "stateMutability": "nonpayable",
      "type": "function"
    },
    {
      "inputs": [
        {
          "internalType": "uint48",
          "name": "orderId_",
          "type": "uint48"
        },
        {
          "internalType": "uint128",
          "name": "oldPrice_",
          "type": "uint128"
        },
        {
          "internalType": "uint128",
          "name": "newPrice_",
          "type": "uint128"
        },
        {
          "internalType": "uint256",
          "name": "newAmount_",
          "type": "uint256"
        },
        {
          "internalType": "uint128[]",
          "name": "prevs_",
          "type": "uint128[]"
        },
        {
          "internalType": "uint128[]",
          "name": "nexts_",
          "type": "uint128[]"
        }
      ],
      "name": "modifySellLimitOrder",
      "outputs": [
        {
          "internalType": "uint48",
          "name": "",
          "type": "uint48"
        }
      ],
      "stateMutability": "nonpayable",
      "type": "function"
    },
    {
      "inputs": [
        {
          "internalType": "uint256",
          "name": "amount_",
          "type": "uint256"
        },
        {
          "internalType": "uint128",
          "name": "price_",
          "type": "uint128"
        },
        {
          "internalType": "uint128[]",
          "name": "prevs_",
          "type": "uint128[]"
        },
        {
          "internalType": "uint128[]",
          "name": "nexts_",
          "type": "uint128[]"
        }
      ],
      "name": "placeBuyLimitOrder",
      "outputs": [
        {
          "internalType": "uint48",
          "name": "orderId_",
          "type": "uint48"
        }
      ],
      "stateMutability": "nonpayable",
      "type": "function"
    },
    {
      "inputs": [
        {
          "internalType": "uint256",
          "name": "tokenBamount_",
          "type": "uint256"
        }
      ],
      "name": "placeBuyMarketOrder",
      "outputs": [],
      "stateMutability": "nonpayable",
      "type": "function"
    },
    {
      "inputs": [
        {
          "internalType": "uint256",
          "name": "amount_",
          "type": "uint256"
        },
        {
          "internalType": "uint128",
          "name": "price_",
          "type": "uint128"
        },
        {
          "internalType": "uint128[]",
          "name": "prevs_",
          "type": "uint128[]"
        },
        {
          "internalType": "uint128[]",
          "name": "nexts_",
          "type": "uint128[]"
        }
      ],
      "name": "placeSellLimitOrder",
      "outputs": [
        {
          "internalType": "uint48",
          "name": "orderId_",
          "type": "uint48"
        }
      ],
      "stateMutability": "nonpayable",
      "type": "function"
    },
    {
      "inputs": [
        {
          "internalType": "uint256",
          "name": "tokenAamount_",
          "type": "uint256"
        }
      ],
      "name": "placeSellMarketOrder",
      "outputs": [],
      "stateMutability": "nonpayable",
      "type": "function"
    },
    {
      "inputs": [],
      "name": "pricePrecision",
      "outputs": [
        {
          "internalType": "uint128",
          "name": "",
          "type": "uint128"
        }
      ],
      "stateMutability": "pure",
      "type": "function"
    },
    {
      "inputs": [],
      "name": "protocolFee",
      "outputs": [
        {
          "internalType": "uint256",
          "name": "",
          "type": "uint256"
        }
      ],
      "stateMutability": "pure",
      "type": "function"
    },
    {
      "inputs": [
        {
          "internalType": "uint48",
          "name": "orderId_",
          "type": "uint48"
        },
        {
          "internalType": "uint128",
          "name": "price_",
          "type": "uint128"
        }
      ],
      "name": "removeBuyLimitOrder",
      "outputs": [],
      "stateMutability": "nonpayable",
      "type": "function"
    },
    {
      "inputs": [
        {
          "internalType": "uint48",
          "name": "orderId_",
          "type": "uint48"
        },
        {
          "internalType": "uint128",
          "name": "price_",
          "type": "uint128"
        }
      ],
      "name": "removeSellLimitOrder",
      "outputs": [],
      "stateMutability": "nonpayable",
      "type": "function"
    },
    {
      "inputs": [
        {
          "internalType": "uint128",
          "name": "price_",
          "type": "uint128"
        },
        {
          "internalType": "uint48",
          "name": "orderId_",
          "type": "uint48"
        }
      ],
      "name": "sellOrderAtPrice",
      "outputs": [
        {
          "components": [
            {
              "internalType": "address",
              "name": "maker",
              "type": "address"
            },
            {
              "internalType": "uint48",
              "name": "prev",
              "type": "uint48"
            },
            {
              "internalType": "uint48",
              "name": "next",
              "type": "uint48"
            },
            {
              "internalType": "uint256",
              "name": "amount",
              "type": "uint256"
            }
          ],
          "internalType": "struct LibLinkedOrders.Order",
          "name": "order_",
          "type": "tuple"
        }
      ],
      "stateMutability": "view",
      "type": "function"
    },
    {
      "inputs": [],
      "name": "sellOrdersAndPrices",
      "outputs": [
        {
          "components": [
            {
              "internalType": "uint128",
              "name": "price",
              "type": "uint128"
            },
            {
              "components": [
                {
                  "internalType": "uint48",
                  "name": "id",
                  "type": "uint48"
                },
                {
                  "internalType": "address",
                  "name": "maker",
                  "type": "address"
                },
                {
                  "internalType": "uint256",
                  "name": "amount",
                  "type": "uint256"
                }
              ],
              "internalType": "struct LibLinkedOrders.ViewOrder[]",
              "name": "orders",
              "type": "tuple[]"
            }
          ],
          "internalType": "struct LibPriceBrackets.OrdersByPrice[]",
          "name": "orders_",
          "type": "tuple[]"
        }
      ],
      "stateMutability": "view",
      "type": "function"
    },
    {
      "inputs": [
        {
          "internalType": "uint128",
          "name": "price_",
          "type": "uint128"
        }
      ],
      "name": "sellOrdersAtPrice",
      "outputs": [
        {
          "components": [
            {
              "internalType": "uint48",
              "name": "id",
              "type": "uint48"
            },
            {
              "internalType": "address",
              "name": "maker",
              "type": "address"
            },
            {
              "internalType": "uint256",
              "name": "amount",
              "type": "uint256"
            }
          ],
          "internalType": "struct LibLinkedOrders.ViewOrder[]",
          "name": "orders_",
          "type": "tuple[]"
        }
      ],
      "stateMutability": "view",
      "type": "function"
    },
    {
      "inputs": [],
      "name": "sellOrdersPrices",
      "outputs": [
        {
          "internalType": "uint128[]",
          "name": "prices_",
          "type": "uint128[]"
        }
      ],
      "stateMutability": "view",
      "type": "function"
    },
    {
      "inputs": [],
      "name": "tokenA",
      "outputs": [
        {
          "internalType": "address",
          "name": "",
          "type": "address"
        }
      ],
      "stateMutability": "view",
      "type": "function"
    },
    {
      "inputs": [],
      "name": "tokenADecimals",
      "outputs": [
        {
          "internalType": "uint256",
          "name": "",
          "type": "uint256"
        }
      ],
      "stateMutability": "view",
      "type": "function"
    },
    {
      "inputs": [
        {
          "internalType": "uint256",
          "name": "amount_",
          "type": "uint256"
        },
        {
          "internalType": "uint256",
          "name": "price_",
          "type": "uint256"
        }
      ],
      "name": "tokenAToTokenB",
      "outputs": [
        {
          "internalType": "uint256",
          "name": "",
          "type": "uint256"
        }
      ],
      "stateMutability": "view",
      "type": "function"
    },
    {
      "inputs": [
        {
          "internalType": "uint256",
          "name": "amount_",
          "type": "uint256"
        }
      ],
      "name": "tokenAToTokenBDecimals",
      "outputs": [
        {
          "internalType": "uint256",
          "name": "",
          "type": "uint256"
        }
      ],
      "stateMutability": "view",
      "type": "function"
    },
    {
      "inputs": [],
      "name": "tokenB",
      "outputs": [
        {
          "internalType": "address",
          "name": "",
          "type": "address"
        }
      ],
      "stateMutability": "view",
      "type": "function"
    },
    {
      "inputs": [],
      "name": "tokenBDecimals",
      "outputs": [
        {
          "internalType": "uint256",
          "name": "",
          "type": "uint256"
        }
      ],
      "stateMutability": "view",
      "type": "function"
    },
    {
      "inputs": [
        {
          "internalType": "uint256",
          "name": "amount_",
          "type": "uint256"
        },
        {
          "internalType": "uint256",
          "name": "price_",
          "type": "uint256"
        }
      ],
      "name": "tokenBToTokenA",
      "outputs": [
        {
          "internalType": "uint256",
          "name": "",
          "type": "uint256"
        }
      ],
      "stateMutability": "view",
      "type": "function"
    },
    {
      "inputs": [
        {
          "internalType": "uint256",
          "name": "amount_",
          "type": "uint256"
        }
      ],
      "name": "tokenBToTokenADecimals",
      "outputs": [
        {
          "internalType": "uint256",
          "name": "",
          "type": "uint256"
        }
      ],
      "stateMutability": "view",
      "type": "function"
    }
  ],
  "bytecode": {
    "object": "0x6101206040523480156200001257600080fd5b50604051620061753803806200617583398181016040528101906200003891906200023f565b8173ffffffffffffffffffffffffffffffffffffffff1660c08173ffffffffffffffffffffffffffffffffffffffff16815250508073ffffffffffffffffffffffffffffffffffffffff1660e08173ffffffffffffffffffffffffffffffffffffffff16815250508173ffffffffffffffffffffffffffffffffffffffff1663313ce5676040518163ffffffff1660e01b8152600401602060405180830381865afa158015620000ec573d6000803e3d6000fd5b505050506040513d601f19601f82011682018060405250810190620001129190620002c4565b60ff16608081815250508073ffffffffffffffffffffffffffffffffffffffff1663313ce5676040518163ffffffff1660e01b8152600401602060405180830381865afa15801562000168573d6000803e3d6000fd5b505050506040513d601f19601f820116820180604052508101906200018e9190620002c4565b60ff1660a081815250503373ffffffffffffffffffffffffffffffffffffffff166101008173ffffffffffffffffffffffffffffffffffffffff16815250505050620002f6565b600080fd5b600073ffffffffffffffffffffffffffffffffffffffff82169050919050565b60006200020782620001da565b9050919050565b6200021981620001fa565b81146200022557600080fd5b50565b60008151905062000239816200020e565b92915050565b60008060408385031215620002595762000258620001d5565b5b6000620002698582860162000228565b92505060206200027c8582860162000228565b9150509250929050565b600060ff82169050919050565b6200029e8162000286565b8114620002aa57600080fd5b50565b600081519050620002be8162000293565b92915050565b600060208284031215620002dd57620002dc620001d5565b5b6000620002ed84828501620002ad565b91505092915050565b60805160a05160c05160e05161010051615d3e62000437600039600081816107580152818161096a01528181610ddb01528181610f07015261232f01526000818161067a0152818161071b01528181610ad801528181610e2901528181610eca01528181610fca015281816113f601528181611c5f01528181611d2a01528181612045015281816120f50152818161254d015261319c01526000818161088c0152818161092d01528181610a2d01528181610c2a0152818161107501528181611252015281816115fe015281816116c9015281816119e401528181611a9401528181612251015281816122f20152612a04015260008181610c5301528181610d9001528181610e030152818161137e015261144c015260008181610c8001528181610d63015281816113ab0152818161141f015261220a0152615d3e6000f3fe608060405234801561001057600080fd5b50600436106101da5760003560e01c80636cac3f8c11610104578063b0e21e8a116100a2578063e4bb65a611610071578063e4bb65a6146105bd578063e9b5b7c4146105ed578063f20b1d6a1461060b578063fc82ce331461063b576101da565b8063b0e21e8a14610533578063b1ccceb014610551578063b5f4abf91461056f578063e155cc871461058d576101da565b80637b71825c116100de5780637b71825c14610485578063941e875b146104b55780639a7fbabb146104e5578063ad5c6ec514610515576101da565b80636cac3f8c146104075780636e8ff5c814610437578063762eacd814610467576101da565b806335a595fe1161017c57806352fc7c341161014b57806352fc7c34146103815780635b7f257a1461039d5780635eee1747146103b95780635f64b55b146103e9576101da565b806335a595fe146102e55780634656463e146103155780634690484014610345578063485391a014610363576101da565b806312dabcd6116101b857806312dabcd6146102495780631d87d0e9146102795780632b02a3a6146102a95780632f7b1915146102c7576101da565b8063068496a7146101df578063085048b91461020f5780630fc63d101461022b575b600080fd5b6101f960048036038101906101f4919061503f565b610657565b6040516102069190615107565b60405180910390f35b61022960048036038101906102249190615122565b61088a565b005b610233610c26565b6040516102409190615190565b60405180910390f35b610263600480360381019061025e91906151ab565b610c4e565b60405161027091906151fa565b60405180910390f35b610293600480360381019061028e9190615122565b610cf7565b6040516102a091906151fa565b60405180910390f35b6102b1610d27565b6040516102be9190615441565b60405180910390f35b6102cf610d38565b6040516102dc91906151fa565b60405180910390f35b6102ff60048036038101906102fa9190615463565b610d42565b60405161030c91906154ff565b60405180910390f35b61032f600480360381019061032a9190615122565b610d5f565b60405161033c91906151fa565b60405180910390f35b61034d610dd7565b60405161035a9190615190565b60405180910390f35b61036b610dff565b60405161037891906151fa565b60405180910390f35b61039b60048036038101906103969190615122565b610e27565b005b6103b760048036038101906103b2919061554d565b6111c3565b005b6103d360048036038101906103ce9190615122565b61137a565b6040516103e091906151fa565b60405180910390f35b6103f16113f2565b6040516103fe9190615190565b60405180910390f35b610421600480360381019061041c91906151ab565b61141a565b60405161042e91906151fa565b60405180910390f35b610451600480360381019061044c9190615463565b6114c3565b60405161045e91906154ff565b60405180910390f35b61046f6114e0565b60405161047c919061563c565b60405180910390f35b61049f600480360381019061049a919061565e565b6114f1565b6040516104ac9190615107565b60405180910390f35b6104cf60048036038101906104ca919061565e565b611b52565b6040516104dc9190615107565b60405180910390f35b6104ff60048036038101906104fa9190615463565b6121b3565b60405161050c919061573c565b60405180910390f35b61051d6121dc565b60405161052a919061573c565b60405180910390f35b61053b6121ec565b60405161054891906151fa565b60405180910390f35b6105596121f5565b6040516105669190615441565b60405180910390f35b610577612206565b60405161058491906151fa565b60405180910390f35b6105a760048036038101906105a2919061503f565b61222e565b6040516105b49190615107565b60405180910390f35b6105d760048036038101906105d29190615757565b612461565b6040516105e491906157ec565b60405180910390f35b6105f5612487565b604051610602919061563c565b60405180910390f35b61062560048036038101906106209190615757565b612498565b60405161063291906157ec565b60405180910390f35b6106556004803603810190610650919061554d565b6124be565b005b60008061067688886fffffffffffffffffffffffffffffffff1661141a565b90507f000000000000000000000000000000000000000000000000000000000000000073ffffffffffffffffffffffffffffffffffffffff166323b872dd3330846040518463ffffffff1660e01b81526004016106d593929190615807565b6020604051808303816000875af11580156106f4573d6000803e3d6000fd5b505050506040513d601f19601f820116820180604052508101906107189190615876565b507f000000000000000000000000000000000000000000000000000000000000000073ffffffffffffffffffffffffffffffffffffffff166323b872dd337f0000000000000000000000000000000000000000000000000000000000000000612710600a8661078791906158d2565b6107919190615943565b6040518463ffffffff1660e01b81526004016107af93929190615807565b6020604051808303816000875af11580156107ce573d6000803e3d6000fd5b505050506040513d601f19601f820116820180604052508101906107f29190615876565b5061081387338a89898989600061267590979695949392919063ffffffff16565b91503373ffffffffffffffffffffffffffffffffffffffff16876fffffffffffffffffffffffffffffffff168365ffffffffffff167f45412d36a049a6018d01092421194c95c6842245eafd6084b20c995a2019539a8b60405161087791906151fa565b60405180910390a4509695505050505050565b7f000000000000000000000000000000000000000000000000000000000000000073ffffffffffffffffffffffffffffffffffffffff166323b872dd3330846040518463ffffffff1660e01b81526004016108e793929190615807565b6020604051808303816000875af1158015610906573d6000803e3d6000fd5b505050506040513d601f19601f8201168201806040525081019061092a9190615876565b507f000000000000000000000000000000000000000000000000000000000000000073ffffffffffffffffffffffffffffffffffffffff166323b872dd337f0000000000000000000000000000000000000000000000000000000000000000612710600a8661099991906158d2565b6109a39190615943565b6040518463ffffffff1660e01b81526004016109c193929190615807565b6020604051808303816000875af11580156109e0573d6000803e3d6000fd5b505050506040513d601f19601f82011682018060405250810190610a049190615876565b50600080610a2083612a026000612b119092919063ffffffff16565b91509150828214610ad6577f000000000000000000000000000000000000000000000000000000000000000073ffffffffffffffffffffffffffffffffffffffff1663a9059cbb338486610a749190615974565b6040518363ffffffff1660e01b8152600401610a919291906159a8565b6020604051808303816000875af1158015610ab0573d6000803e3d6000fd5b505050506040513d601f19601f82011682018060405250810190610ad49190615876565b505b7f000000000000000000000000000000000000000000000000000000000000000073ffffffffffffffffffffffffffffffffffffffff1663a9059cbb33670de0b6b3a76400006fffffffffffffffffffffffffffffffff16610b3785610d5f565b610b419190615943565b6040518363ffffffff1660e01b8152600401610b5e9291906159a8565b6020604051808303816000875af1158015610b7d573d6000803e3d6000fd5b505050506040513d601f19601f82011682018060405250810190610ba19190615876565b503373ffffffffffffffffffffffffffffffffffffffff1682670de0b6b3a76400006fffffffffffffffffffffffffffffffff1683610be091906158d2565b610bea9190615943565b7f29e034e8a99021a58de54845c2986105b42d52b261c5e6f5e8e2507d6875efc283604051610c1991906151fa565b60405180910390a3505050565b60007f0000000000000000000000000000000000000000000000000000000000000000905090565b6000817f0000000000000000000000000000000000000000000000000000000000000000600a610c7e9190615b04565b7f0000000000000000000000000000000000000000000000000000000000000000600a610cab9190615b04565b670de0b6b3a76400006fffffffffffffffffffffffffffffffff1686610cd191906158d2565b610cdb91906158d2565b610ce59190615943565b610cef9190615943565b905092915050565b6000612710600a612710610d0b9190615b4f565b83610d1691906158d2565b610d209190615943565b9050919050565b6060610d336002612e89565b905090565b6000612710905090565b6060610d5882600261314c90919063ffffffff16565b9050919050565b60007f0000000000000000000000000000000000000000000000000000000000000000600a610d8e9190615b04565b7f0000000000000000000000000000000000000000000000000000000000000000600a610dbb9190615b04565b83610dc691906158d2565b610dd09190615943565b9050919050565b60007f0000000000000000000000000000000000000000000000000000000000000000905090565b60007f0000000000000000000000000000000000000000000000000000000000000000905090565b7f000000000000000000000000000000000000000000000000000000000000000073ffffffffffffffffffffffffffffffffffffffff166323b872dd3330846040518463ffffffff1660e01b8152600401610e8493929190615807565b6020604051808303816000875af1158015610ea3573d6000803e3d6000fd5b505050506040513d601f19601f82011682018060405250810190610ec79190615876565b507f000000000000000000000000000000000000000000000000000000000000000073ffffffffffffffffffffffffffffffffffffffff166323b872dd337f0000000000000000000000000000000000000000000000000000000000000000612710600a86610f3691906158d2565b610f409190615943565b6040518463ffffffff1660e01b8152600401610f5e93929190615807565b6020604051808303816000875af1158015610f7d573d6000803e3d6000fd5b505050506040513d601f19601f82011682018060405250810190610fa19190615876565b50600080610fbd8361319a6002612b119092919063ffffffff16565b91509150828214611073577f000000000000000000000000000000000000000000000000000000000000000073ffffffffffffffffffffffffffffffffffffffff1663a9059cbb3384866110119190615974565b6040518363ffffffff1660e01b815260040161102e9291906159a8565b6020604051808303816000875af115801561104d573d6000803e3d6000fd5b505050506040513d601f19601f820116820180604052508101906110719190615876565b505b7f000000000000000000000000000000000000000000000000000000000000000073ffffffffffffffffffffffffffffffffffffffff1663a9059cbb33670de0b6b3a76400006fffffffffffffffffffffffffffffffff166110d48561137a565b6110de9190615943565b6040518363ffffffff1660e01b81526004016110fb9291906159a8565b6020604051808303816000875af115801561111a573d6000803e3d6000fd5b505050506040513d601f19601f8201168201806040525081019061113e9190615876565b503373ffffffffffffffffffffffffffffffffffffffff1681670de0b6b3a76400006fffffffffffffffffffffffffffffffff168461117d91906158d2565b6111879190615943565b7fb2f48f11a7acd029dc798141c8bc101818da5f789a52c315ab81d8bb0cde1392836040516111b691906151fa565b60405180910390a3505050565b6000806111dc838560026132a99092919063ffffffff16565b915091503373ffffffffffffffffffffffffffffffffffffffff168273ffffffffffffffffffffffffffffffffffffffff161461125057336040517fa56e5f210000000000000000000000000000000000000000000000000000000081526004016112479190615190565b60405180910390fd5b7f000000000000000000000000000000000000000000000000000000000000000073ffffffffffffffffffffffffffffffffffffffff1663a9059cbb836112a984876fffffffffffffffffffffffffffffffff16610c4e565b6040518363ffffffff1660e01b81526004016112c69291906159a8565b6020604051808303816000875af11580156112e5573d6000803e3d6000fd5b505050506040513d601f19601f820116820180604052508101906113099190615876565b508173ffffffffffffffffffffffffffffffffffffffff16836fffffffffffffffffffffffffffffffff168565ffffffffffff167f9125b76e079102ec1e857457b50b74b3da3b02ace31b6a3b770c368b46e59c858460405161136c91906151fa565b60405180910390a450505050565b60007f0000000000000000000000000000000000000000000000000000000000000000600a6113a99190615b04565b7f0000000000000000000000000000000000000000000000000000000000000000600a6113d69190615b04565b836113e191906158d2565b6113eb9190615943565b9050919050565b60007f0000000000000000000000000000000000000000000000000000000000000000905090565b6000817f0000000000000000000000000000000000000000000000000000000000000000600a61144a9190615b04565b7f0000000000000000000000000000000000000000000000000000000000000000600a6114779190615b04565b670de0b6b3a76400006fffffffffffffffffffffffffffffffff168661149d91906158d2565b6114a791906158d2565b6114b19190615943565b6114bb9190615943565b905092915050565b60606114d982600061314c90919063ffffffff16565b9050919050565b60606114ec60026136b8565b905090565b6000806000886fffffffffffffffffffffffffffffffff168a6fffffffffffffffffffffffffffffffff1603611801576115398a8c8a600261393f909392919063ffffffff16565b80925081935050503373ffffffffffffffffffffffffffffffffffffffff168273ffffffffffffffffffffffffffffffffffffffff16146115b157336040517fa56e5f210000000000000000000000000000000000000000000000000000000081526004016115a89190615190565b60405180910390fd5b8781036115f557806040517f323dea3a0000000000000000000000000000000000000000000000000000000081526004016115ec91906151fa565b60405180910390fd5b8088106116c7577f000000000000000000000000000000000000000000000000000000000000000073ffffffffffffffffffffffffffffffffffffffff166323b872dd3330611661858d6116499190615974565b8f6fffffffffffffffffffffffffffffffff16610c4e565b6040518463ffffffff1660e01b815260040161167f93929190615807565b6020604051808303816000875af115801561169e573d6000803e3d6000fd5b505050506040513d601f19601f820116820180604052508101906116c29190615876565b61178c565b7f000000000000000000000000000000000000000000000000000000000000000073ffffffffffffffffffffffffffffffffffffffff1663a9059cbb8361172b8b856117139190615974565b8e6fffffffffffffffffffffffffffffffff16610c4e565b6040518363ffffffff1660e01b81526004016117489291906159a8565b6020604051808303816000875af1158015611767573d6000803e3d6000fd5b505050506040513d601f19601f8201168201806040525081019061178b9190615876565b5b508173ffffffffffffffffffffffffffffffffffffffff168a6fffffffffffffffffffffffffffffffff168c65ffffffffffff167fc44d92397d913a304cd35e0433b84de159c0aaaba55ddf109f948e22c2c4f91e8b6040516117ef91906151fa565b60405180910390a48a92505050611b46565b6118178a8c60026132a99092919063ffffffff16565b80925081935050503373ffffffffffffffffffffffffffffffffffffffff168273ffffffffffffffffffffffffffffffffffffffff161461188f57336040517fa56e5f210000000000000000000000000000000000000000000000000000000081526004016118869190615190565b60405180910390fd5b60006118b18a848b8b8b8b8b600261267590979695949392919063ffffffff16565b905060006118d1838d6fffffffffffffffffffffffffffffffff16610c4e565b905060006118f18b8d6fffffffffffffffffffffffffffffffff16610c4e565b90508473ffffffffffffffffffffffffffffffffffffffff168d6fffffffffffffffffffffffffffffffff168f65ffffffffffff167f9125b76e079102ec1e857457b50b74b3da3b02ace31b6a3b770c368b46e59c858760405161195591906151fa565b60405180910390a48473ffffffffffffffffffffffffffffffffffffffff168c6fffffffffffffffffffffffffffffffff168f65ffffffffffff167ff8313879ec08b845c25b193ba297021d21c918847906972e6ef2f47e083b85f18e6040516119bf91906151fa565b60405180910390a48082036119db578295505050505050611b46565b818110611a92577f000000000000000000000000000000000000000000000000000000000000000073ffffffffffffffffffffffffffffffffffffffff166323b872dd33308585611a2c9190615974565b6040518463ffffffff1660e01b8152600401611a4a93929190615807565b6020604051808303816000875af1158015611a69573d6000803e3d6000fd5b505050506040513d601f19601f82011682018060405250810190611a8d9190615876565b611b3c565b7f000000000000000000000000000000000000000000000000000000000000000073ffffffffffffffffffffffffffffffffffffffff1663a9059cbb868385611adb9190615974565b6040518363ffffffff1660e01b8152600401611af89291906159a8565b6020604051808303816000875af1158015611b17573d6000803e3d6000fd5b505050506040513d601f19601f82011682018060405250810190611b3b9190615876565b5b5082955050505050505b98975050505050505050565b6000806000886fffffffffffffffffffffffffffffffff168a6fffffffffffffffffffffffffffffffff1603611e6257611b9a8a8c8a600061393f909392919063ffffffff16565b80925081935050503373ffffffffffffffffffffffffffffffffffffffff168273ffffffffffffffffffffffffffffffffffffffff1614611c1257336040517fa56e5f21000000000000000000000000000000000000000000000000000000008152600401611c099190615190565b60405180910390fd5b878103611c5657806040517f323dea3a000000000000000000000000000000000000000000000000000000008152600401611c4d91906151fa565b60405180910390fd5b808810611d28577f000000000000000000000000000000000000000000000000000000000000000073ffffffffffffffffffffffffffffffffffffffff166323b872dd3330611cc2858d611caa9190615974565b8f6fffffffffffffffffffffffffffffffff1661141a565b6040518463ffffffff1660e01b8152600401611ce093929190615807565b6020604051808303816000875af1158015611cff573d6000803e3d6000fd5b505050506040513d601f19601f82011682018060405250810190611d239190615876565b611ded565b7f000000000000000000000000000000000000000000000000000000000000000073ffffffffffffffffffffffffffffffffffffffff1663a9059cbb83611d8c8b85611d749190615974565b8e6fffffffffffffffffffffffffffffffff1661141a565b6040518363ffffffff1660e01b8152600401611da99291906159a8565b6020604051808303816000875af1158015611dc8573d6000803e3d6000fd5b505050506040513d601f19601f82011682018060405250810190611dec9190615876565b5b508173ffffffffffffffffffffffffffffffffffffffff168a6fffffffffffffffffffffffffffffffff168c65ffffffffffff167f66f9a2a890553e6eb7b17a8db12f99be69bfdf5e82d1449f52dc4b1b13dd646c8b604051611e5091906151fa565b60405180910390a48a925050506121a7565b611e788a8c60006132a99092919063ffffffff16565b80925081935050503373ffffffffffffffffffffffffffffffffffffffff168273ffffffffffffffffffffffffffffffffffffffff1614611ef057336040517fa56e5f21000000000000000000000000000000000000000000000000000000008152600401611ee79190615190565b60405180910390fd5b6000611f128a848b8b8b8b8b600061267590979695949392919063ffffffff16565b90506000611f32838d6fffffffffffffffffffffffffffffffff1661141a565b90506000611f528b8d6fffffffffffffffffffffffffffffffff1661141a565b90508473ffffffffffffffffffffffffffffffffffffffff168d6fffffffffffffffffffffffffffffffff168f65ffffffffffff167f1cc70e5a955a8411cef289fd01e01b6768a8ee513ee33f1806db4151a94126af87604051611fb691906151fa565b60405180910390a48473ffffffffffffffffffffffffffffffffffffffff168c6fffffffffffffffffffffffffffffffff168f65ffffffffffff167f45412d36a049a6018d01092421194c95c6842245eafd6084b20c995a2019539a8e60405161202091906151fa565b60405180910390a480820361203c5782955050505050506121a7565b8181106120f3577f000000000000000000000000000000000000000000000000000000000000000073ffffffffffffffffffffffffffffffffffffffff166323b872dd3330858561208d9190615974565b6040518463ffffffff1660e01b81526004016120ab93929190615807565b6020604051808303816000875af11580156120ca573d6000803e3d6000fd5b505050506040513d601f19601f820116820180604052508101906120ee9190615876565b61219d565b7f000000000000000000000000000000000000000000000000000000000000000073ffffffffffffffffffffffffffffffffffffffff1663a9059cbb86838561213c9190615974565b6040518363ffffffff1660e01b81526004016121599291906159a8565b6020604051808303816000875af1158015612178573d6000803e3d6000fd5b505050506040513d601f19601f8201168201806040525081019061219c9190615876565b5b5082955050505050505b98975050505050505050565b6000816002670de0b6b3a76400006121cb9190615b90565b6121d59190615bcb565b9050919050565b6000670de0b6b3a7640000905090565b6000600a905090565b60606122016000612e89565b905090565b60007f0000000000000000000000000000000000000000000000000000000000000000905090565b60008061224d88886fffffffffffffffffffffffffffffffff16610c4e565b90507f000000000000000000000000000000000000000000000000000000000000000073ffffffffffffffffffffffffffffffffffffffff166323b872dd3330846040518463ffffffff1660e01b81526004016122ac93929190615807565b6020604051808303816000875af11580156122cb573d6000803e3d6000fd5b505050506040513d601f19601f820116820180604052508101906122ef9190615876565b507f000000000000000000000000000000000000000000000000000000000000000073ffffffffffffffffffffffffffffffffffffffff166323b872dd337f0000000000000000000000000000000000000000000000000000000000000000612710600a8661235e91906158d2565b6123689190615943565b6040518463ffffffff1660e01b815260040161238693929190615807565b6020604051808303816000875af11580156123a5573d6000803e3d6000fd5b505050506040513d601f19601f820116820180604052508101906123c99190615876565b506123ea87338a89898989600261267590979695949392919063ffffffff16565b91503373ffffffffffffffffffffffffffffffffffffffff16876fffffffffffffffffffffffffffffffff168365ffffffffffff167ff8313879ec08b845c25b193ba297021d21c918847906972e6ef2f47e083b85f18b60405161244e91906151fa565b60405180910390a4509695505050505050565b612469614e99565b61247f838360026139df9092919063ffffffff16565b905092915050565b606061249360006136b8565b905090565b6124a0614e99565b6124b6838360006139df9092919063ffffffff16565b905092915050565b6000806124d7838560006132a99092919063ffffffff16565b915091503373ffffffffffffffffffffffffffffffffffffffff168273ffffffffffffffffffffffffffffffffffffffff161461254b57336040517fa56e5f210000000000000000000000000000000000000000000000000000000081526004016125429190615190565b60405180910390fd5b7f000000000000000000000000000000000000000000000000000000000000000073ffffffffffffffffffffffffffffffffffffffff1663a9059cbb836125a484876fffffffffffffffffffffffffffffffff1661141a565b6040518363ffffffff1660e01b81526004016125c19291906159a8565b6020604051808303816000875af11580156125e0573d6000803e3d6000fd5b505050506040513d601f19601f820116820180604052508101906126049190615876565b508173ffffffffffffffffffffffffffffffffffffffff16836fffffffffffffffffffffffffffffffff168565ffffffffffff167f1cc70e5a955a8411cef289fd01e01b6768a8ee513ee33f1806db4151a94126af8460405161266791906151fa565b60405180910390a450505050565b60006126818989613b13565b156126dd576126d687878b60010160008c6fffffffffffffffffffffffffffffffff166fffffffffffffffffffffffffffffffff168152602001908152602001600020600101613b7a9092919063ffffffff16565b90506129f6565b60006126eb8a87878c613db1565b905060006126fb8b86868d61407f565b9050818b60010160008c6fffffffffffffffffffffffffffffffff166fffffffffffffffffffffffffffffffff16815260200190815260200160002060000160006101000a8154816fffffffffffffffffffffffffffffffff02191690836fffffffffffffffffffffffffffffffff160217905550808b60010160008c6fffffffffffffffffffffffffffffffff166fffffffffffffffffffffffffffffffff16815260200190815260200160002060000160106101000a8154816fffffffffffffffffffffffffffffffff02191690836fffffffffffffffffffffffffffffffff16021790555061283389898d60010160008e6fffffffffffffffffffffffffffffffff166fffffffffffffffffffffffffffffffff168152602001908152602001600020600101613b7a9092919063ffffffff16565b925060006fffffffffffffffffffffffffffffffff16826fffffffffffffffffffffffffffffffff16146128d857898b6001016000846fffffffffffffffffffffffffffffffff166fffffffffffffffffffffffffffffffff16815260200190815260200160002060000160106101000a8154816fffffffffffffffffffffffffffffffff02191690836fffffffffffffffffffffffffffffffff1602179055612913565b898b60000160006101000a8154816fffffffffffffffffffffffffffffffff02191690836fffffffffffffffffffffffffffffffff16021790555b5060006fffffffffffffffffffffffffffffffff16816fffffffffffffffffffffffffffffffff16146129b757898b6001016000836fffffffffffffffffffffffffffffffff166fffffffffffffffffffffffffffffffff16815260200190815260200160002060000160006101000a8154816fffffffffffffffffffffffffffffffff02191690836fffffffffffffffffffffffffffffffff16021790556129f2565b898b60000160106101000a8154816fffffffffffffffffffffffffffffffff02191690836fffffffffffffffffffffffffffffffff16021790555b5050505b98975050505050505050565b7f000000000000000000000000000000000000000000000000000000000000000073ffffffffffffffffffffffffffffffffffffffff1663a9059cbb83836040518363ffffffff1660e01b8152600401612a5d9291906159a8565b6020604051808303816000875af1158015612a7c573d6000803e3d6000fd5b505050506040513d601f19601f82011682018060405250810190612aa09190615876565b508173ffffffffffffffffffffffffffffffffffffffff16836fffffffffffffffffffffffffffffffff168565ffffffffffff167f3c56bae8c9fd1f1fe9c08e97f61bc37e3481b42850a893898db146991cae2e0484604051612b0391906151fa565b60405180910390a450505050565b60008060008560000160009054906101000a90046fffffffffffffffffffffffffffffffff169050600081905060006fffffffffffffffffffffffffffffffff16816fffffffffffffffffffffffffffffffff1603612b7857600080935093505050612e81565b60008060005b8887108015612bb2575060006fffffffffffffffffffffffffffffffff16846fffffffffffffffffffffffffffffffff1614155b15612dc457612c14878a612bc69190615974565b858a8d6001016000896fffffffffffffffffffffffffffffffff166fffffffffffffffffffffffffffffffff168152602001908152602001600020600101614355909392919063ffffffff16565b80925081945050508287612c289190615b4f565b9650836fffffffffffffffffffffffffffffffff166002670de0b6b3a7640000612c529190615b90565b6fffffffffffffffffffffffffffffffff1684612c6f91906158d2565b612c799190615943565b86612c849190615b4f565b9550896001016000856fffffffffffffffffffffffffffffffff166fffffffffffffffffffffffffffffffff16815260200190815260200160002060000160109054906101000a90046fffffffffffffffffffffffffffffffff1691508015612dbf57896001016000856fffffffffffffffffffffffffffffffff166fffffffffffffffffffffffffffffffff168152602001908152602001600020600080820160006101000a8154906fffffffffffffffffffffffffffffffff02191690556000820160106101000a8154906fffffffffffffffffffffffffffffffff021916905560018201600080820160006101000a81549065ffffffffffff02191690556000820160066101000a81549065ffffffffffff021916905560008201600c6101000a81549065ffffffffffff0219169055505050508193505b612b7e565b846fffffffffffffffffffffffffffffffff16846fffffffffffffffffffffffffffffffff1614612e2b57838a60000160006101000a8154816fffffffffffffffffffffffffffffffff02191690836fffffffffffffffffffffffffffffffff1602179055505b60006fffffffffffffffffffffffffffffffff16846fffffffffffffffffffffffffffffffff1603612e7b578960000160106101000a8154906fffffffffffffffffffffffffffffffff02191690555b50505050505b935093915050565b60606000808360000160009054906101000a90046fffffffffffffffffffffffffffffffff1690506000816fffffffffffffffffffffffffffffffff1603612f2957600067ffffffffffffffff811115612ee657612ee5615bfc565b5b604051908082528060200260200182016040528015612f1f57816020015b612f0c614ee7565b815260200190600190039081612f045790505b5092505050613147565b600061138867ffffffffffffffff811115612f4757612f46615bfc565b5b604051908082528060200260200182016040528015612f8057816020015b612f6d614ee7565b815260200190600190039081612f655790505b5090505b6000826fffffffffffffffffffffffffffffffff161461305e576000612faa868461314c565b90506040518060400160405280846fffffffffffffffffffffffffffffffff16815260200182815250828580612fdf90615c2b565b965081518110612ff257612ff1615c73565b5b6020026020010181905250856001016000846fffffffffffffffffffffffffffffffff166fffffffffffffffffffffffffffffffff16815260200190815260200160002060000160109054906101000a90046fffffffffffffffffffffffffffffffff16925050612f84565b8267ffffffffffffffff81111561307857613077615bfc565b5b6040519080825280602002602001820160405280156130b157816020015b61309e614ee7565b8152602001906001900390816130965790505b509350600091505b82826fffffffffffffffffffffffffffffffff1610156131435780826fffffffffffffffffffffffffffffffff16815181106130f8576130f7615c73565b5b602002602001015184836fffffffffffffffffffffffffffffffff168151811061312557613124615c73565b5b6020026020010181905250818061313b90615ca2565b9250506130b9565b5050505b919050565b6060613192836001016000846fffffffffffffffffffffffffffffffff166fffffffffffffffffffffffffffffffff1681526020019081526020016000206001016146fc565b905092915050565b7f000000000000000000000000000000000000000000000000000000000000000073ffffffffffffffffffffffffffffffffffffffff1663a9059cbb83836040518363ffffffff1660e01b81526004016131f59291906159a8565b6020604051808303816000875af1158015613214573d6000803e3d6000fd5b505050506040513d601f19601f820116820180604052508101906132389190615876565b508173ffffffffffffffffffffffffffffffffffffffff16836fffffffffffffffffffffffffffffffff168565ffffffffffff167fcb9529298e8d29ae05e64f7b347dbcc481f7adcab7d022ede826d72f4fe12b938460405161329b91906151fa565b60405180910390a450505050565b6000806132b68585613b13565b6132ec576040517f973685ff00000000000000000000000000000000000000000000000000000000815260040160405180910390fd5b600080600061333f868960010160008a6fffffffffffffffffffffffffffffffff166fffffffffffffffffffffffffffffffff168152602001908152602001600020600101614a3f90919063ffffffff16565b92509250925082613358578181945094505050506136b0565b6000886001016000896fffffffffffffffffffffffffffffffff166fffffffffffffffffffffffffffffffff16815260200190815260200160002060000160009054906101000a90046fffffffffffffffffffffffffffffffff16905060008960010160008a6fffffffffffffffffffffffffffffffff166fffffffffffffffffffffffffffffffff16815260200190815260200160002060000160109054906101000a90046fffffffffffffffffffffffffffffffff16905060006fffffffffffffffffffffffffffffffff16826fffffffffffffffffffffffffffffffff16146134b557808a6001016000846fffffffffffffffffffffffffffffffff166fffffffffffffffffffffffffffffffff16815260200190815260200160002060000160106101000a8154816fffffffffffffffffffffffffffffffff02191690836fffffffffffffffffffffffffffffffff16021790556134f0565b808a60000160006101000a8154816fffffffffffffffffffffffffffffffff02191690836fffffffffffffffffffffffffffffffff16021790555b5060006fffffffffffffffffffffffffffffffff16816fffffffffffffffffffffffffffffffff161461359457818a6001016000836fffffffffffffffffffffffffffffffff166fffffffffffffffffffffffffffffffff16815260200190815260200160002060000160006101000a8154816fffffffffffffffffffffffffffffffff02191690836fffffffffffffffffffffffffffffffff16021790556135cf565b818a60000160106101000a8154816fffffffffffffffffffffffffffffffff02191690836fffffffffffffffffffffffffffffffff16021790555b508960010160008a6fffffffffffffffffffffffffffffffff166fffffffffffffffffffffffffffffffff168152602001908152602001600020600080820160006101000a8154906fffffffffffffffffffffffffffffffff02191690556000820160106101000a8154906fffffffffffffffffffffffffffffffff021916905560018201600080820160006101000a81549065ffffffffffff02191690556000820160066101000a81549065ffffffffffff021916905560008201600c6101000a81549065ffffffffffff02191690555050505083839650965050505050505b935093915050565b60606000808360000160009054906101000a90046fffffffffffffffffffffffffffffffff1690506000816fffffffffffffffffffffffffffffffff160361374d57600067ffffffffffffffff81111561371557613714615bfc565b5b6040519080825280602002602001820160405280156137435781602001602082028036833780820191505090505b509250505061393a565b61138867ffffffffffffffff81111561376957613768615bfc565b5b6040519080825280602002602001820160405280156137975781602001602082028036833780820191505090505b5092505b6000816fffffffffffffffffffffffffffffffff161461386757808383806137c290615c2b565b9450815181106137d5576137d4615c73565b5b60200260200101906fffffffffffffffffffffffffffffffff1690816fffffffffffffffffffffffffffffffff1681525050836001016000826fffffffffffffffffffffffffffffffff166fffffffffffffffffffffffffffffffff16815260200190815260200160002060000160109054906101000a90046fffffffffffffffffffffffffffffffff16905061379b565b60008267ffffffffffffffff81111561388357613882615bfc565b5b6040519080825280602002602001820160405280156138b15781602001602082028036833780820191505090505b50905060005b83811015613932578481815181106138d2576138d1615c73565b5b60200260200101518282815181106138ed576138ec615c73565b5b60200260200101906fffffffffffffffffffffffffffffffff1690816fffffffffffffffffffffffffffffffff1681525050808061392a90615c2b565b9150506138b7565b508093505050505b919050565b60008061394c8686613b13565b613982576040517f973685ff00000000000000000000000000000000000000000000000000000000815260040160405180910390fd5b6139d28484886001016000896fffffffffffffffffffffffffffffffff166fffffffffffffffffffffffffffffffff168152602001908152602001600020600101614d9b9092919063ffffffff16565b9150915094509492505050565b6139e7614e99565b836001016000846fffffffffffffffffffffffffffffffff166fffffffffffffffffffffffffffffffff16815260200190815260200160002060010160010160008365ffffffffffff1665ffffffffffff1681526020019081526020016000206040518060800160405290816000820160009054906101000a900473ffffffffffffffffffffffffffffffffffffffff1673ffffffffffffffffffffffffffffffffffffffff1673ffffffffffffffffffffffffffffffffffffffff1681526020016000820160149054906101000a900465ffffffffffff1665ffffffffffff1665ffffffffffff16815260200160008201601a9054906101000a900465ffffffffffff1665ffffffffffff1665ffffffffffff16815260200160018201548152505090509392505050565b600080836001016000846fffffffffffffffffffffffffffffffff166fffffffffffffffffffffffffffffffff16815260200190815260200160002060010160000160009054906101000a900465ffffffffffff1665ffffffffffff161415905092915050565b600083600001600c81819054906101000a900465ffffffffffff16613b9e90615cda565b91906101000a81548165ffffffffffff021916908365ffffffffffff1602179055905060008460000160069054906101000a900465ffffffffffff16905060405180608001604052808573ffffffffffffffffffffffffffffffffffffffff1681526020018265ffffffffffff168152602001600065ffffffffffff168152602001848152508560010160008465ffffffffffff1665ffffffffffff16815260200190815260200160002060008201518160000160006101000a81548173ffffffffffffffffffffffffffffffffffffffff021916908373ffffffffffffffffffffffffffffffffffffffff16021790555060208201518160000160146101000a81548165ffffffffffff021916908365ffffffffffff160217905550604082015181600001601a6101000a81548165ffffffffffff021916908365ffffffffffff16021790555060608201518160010155905050600065ffffffffffff168165ffffffffffff1614613d5a57818560010160008365ffffffffffff1665ffffffffffff168152602001908152602001600020600001601a6101000a81548165ffffffffffff021916908365ffffffffffff1602179055613d81565b818560000160006101000a81548165ffffffffffff021916908365ffffffffffff16021790555b50818560000160066101000a81548165ffffffffffff021916908365ffffffffffff160217905550509392505050565b6000805b613de686868684818110613dcc57613dcb615c73565b5b9050602002016020810190613de19190615463565b613b13565b158015613e3f575060006fffffffffffffffffffffffffffffffff16858583818110613e1557613e14615c73565b5b9050602002016020810190613e2a9190615463565b6fffffffffffffffffffffffffffffffff1614155b15613e8b57806001019050848490508103613e86576040517f973685ff00000000000000000000000000000000000000000000000000000000815260040160405180910390fd5b613db5565b6000858583818110613ea057613e9f615c73565b5b9050602002016020810190613eb59190615463565b905060006fffffffffffffffffffffffffffffffff16816fffffffffffffffffffffffffffffffff16148015613f2e57508660000160009054906101000a90046fffffffffffffffffffffffffffffffff166fffffffffffffffffffffffffffffffff16846fffffffffffffffffffffffffffffffff16115b15613f57578660000160009054906101000a90046fffffffffffffffffffffffffffffffff1690505b5b836fffffffffffffffffffffffffffffffff16816fffffffffffffffffffffffffffffffff16108015613fb0575060006fffffffffffffffffffffffffffffffff16816fffffffffffffffffffffffffffffffff1614155b1561401857809250866001016000846fffffffffffffffffffffffffffffffff166fffffffffffffffffffffffffffffffff16815260200190815260200160002060000160109054906101000a90046fffffffffffffffffffffffffffffffff169050613f58565b826fffffffffffffffffffffffffffffffff16846fffffffffffffffffffffffffffffffff1611614075576040517f3fc045d300000000000000000000000000000000000000000000000000000000815260040160405180910390fd5b5050949350505050565b6000805b6140b48686868481811061409a57614099615c73565b5b90506020020160208101906140af9190615463565b613b13565b15801561410d575060006fffffffffffffffffffffffffffffffff168585838181106140e3576140e2615c73565b5b90506020020160208101906140f89190615463565b6fffffffffffffffffffffffffffffffff1614155b1561415957806001019050848490508103614154576040517f973685ff00000000000000000000000000000000000000000000000000000000815260040160405180910390fd5b614083565b600085858381811061416e5761416d615c73565b5b90506020020160208101906141839190615463565b905060008760000160109054906101000a90046fffffffffffffffffffffffffffffffff16905060006fffffffffffffffffffffffffffffffff16826fffffffffffffffffffffffffffffffff161480156142015750806fffffffffffffffffffffffffffffffff16856fffffffffffffffffffffffffffffffff16105b1561422a578760000160109054906101000a90046fffffffffffffffffffffffffffffffff1691505b5b846fffffffffffffffffffffffffffffffff16826fffffffffffffffffffffffffffffffff1611156142ba57819350876001016000856fffffffffffffffffffffffffffffffff166fffffffffffffffffffffffffffffffff16815260200190815260200160002060000160009054906101000a90046fffffffffffffffffffffffffffffffff16915061422b565b836fffffffffffffffffffffffffffffffff16856fffffffffffffffffffffffffffffffff1610158015614313575060006fffffffffffffffffffffffffffffffff16846fffffffffffffffffffffffffffffffff1614155b1561434a576040517fcdc16b7b00000000000000000000000000000000000000000000000000000000815260040160405180910390fd5b505050949350505050565b60008060008660000160009054906101000a900465ffffffffffff169050600065ffffffffffff168165ffffffffffff1603614399576000600192509250506146f3565b60008760010160008365ffffffffffff1665ffffffffffff1681526020019081526020016000206001015490506000805b8883836143d79190615b4f565b116145545782826143e89190615b4f565b91508960010160008565ffffffffffff1665ffffffffffff168152602001908152602001600020600001601a9054906101000a900465ffffffffffff16905061447f84898c60010160008865ffffffffffff1665ffffffffffff16815260200190815260200160002060000160009054906101000a900473ffffffffffffffffffffffffffffffffffffffff16868b63ffffffff16565b8960010160008565ffffffffffff1665ffffffffffff168152602001908152602001600020600080820160006101000a81549073ffffffffffffffffffffffffffffffffffffffff02191690556000820160146101000a81549065ffffffffffff021916905560008201601a6101000a81549065ffffffffffff021916905560018201600090555050809350600065ffffffffffff168465ffffffffffff160315614554578960010160008565ffffffffffff1665ffffffffffff1681526020019081526020016000206001015492506143ca565b600065ffffffffffff168465ffffffffffff16036145ae578960000160006101000a81549065ffffffffffff02191690558960000160066101000a81549065ffffffffffff021916905581600195509550505050506146f3565b6000821461462a57838a60000160006101000a81548165ffffffffffff021916908365ffffffffffff16021790555060008a60010160008665ffffffffffff1665ffffffffffff16815260200190815260200160002060000160146101000a81548165ffffffffffff021916908365ffffffffffff1602179055505b8882036146415781600095509550505050506146f3565b818961464d9190615974565b836146589190615974565b8a60010160008665ffffffffffff1665ffffffffffff168152602001908152602001600020600101819055506146e784898c60010160008865ffffffffffff1665ffffffffffff16815260200190815260200160002060000160009054906101000a900473ffffffffffffffffffffffffffffffffffffffff16858d6146de9190615974565b8b63ffffffff16565b88600095509550505050505b94509492505050565b606060008260000160009054906101000a900465ffffffffffff1690506000808265ffffffffffff160361478857600067ffffffffffffffff81111561474557614744615bfc565b5b60405190808252806020026020018201604052801561477e57816020015b61476b614f13565b8152602001906001900390816147635790505b5092505050614a3a565b83600001600c9054906101000a900465ffffffffffff1665ffffffffffff1667ffffffffffffffff8111156147c0576147bf615bfc565b5b6040519080825280602002602001820160405280156147f957816020015b6147e6614f13565b8152602001906001900390816147de5790505b50925060005b60008365ffffffffffff16146149815760008560010160008565ffffffffffff1665ffffffffffff1681526020019081526020016000206040518060800160405290816000820160009054906101000a900473ffffffffffffffffffffffffffffffffffffffff1673ffffffffffffffffffffffffffffffffffffffff1673ffffffffffffffffffffffffffffffffffffffff1681526020016000820160149054906101000a900465ffffffffffff1665ffffffffffff1665ffffffffffff16815260200160008201601a9054906101000a900465ffffffffffff1665ffffffffffff1665ffffffffffff168152602001600182015481525050905060405180606001604052808565ffffffffffff168152602001826000015173ffffffffffffffffffffffffffffffffffffffff168152602001826060015181525085848061494890615c2b565b95508151811061495b5761495a615c73565b5b602002602001018190525080604001519350818061497890615c2b565b925050506147ff565b60008167ffffffffffffffff81111561499d5761499c615bfc565b5b6040519080825280602002602001820160405280156149d657816020015b6149c3614f13565b8152602001906001900390816149bb5790505b509050600092505b81831015614a32578483815181106149f9576149f8615c73565b5b6020026020010151818481518110614a1457614a13615c73565b5b60200260200101819052508280614a2a90615c2b565b9350506149de565b809450505050505b919050565b60008060008065ffffffffffff168465ffffffffffff1603614a8d576040517f563c81d300000000000000000000000000000000000000000000000000000000815260040160405180910390fd5b60008560010160008665ffffffffffff1665ffffffffffff16815260200190815260200160002060000160149054906101000a900465ffffffffffff16905060008660010160008765ffffffffffff1665ffffffffffff168152602001908152602001600020600001601a9054906101000a900465ffffffffffff1690508660000160009054906101000a900465ffffffffffff1665ffffffffffff168665ffffffffffff1603614b6457808760000160006101000a81548165ffffffffffff021916908365ffffffffffff160217905550614bb0565b808760010160008465ffffffffffff1665ffffffffffff168152602001908152602001600020600001601a6101000a81548165ffffffffffff021916908365ffffffffffff1602179055505b8660000160069054906101000a900465ffffffffffff1665ffffffffffff168665ffffffffffff1603614c0957818760000160066101000a81548165ffffffffffff021916908365ffffffffffff160217905550614c55565b818760010160008365ffffffffffff1665ffffffffffff16815260200190815260200160002060000160146101000a81548165ffffffffffff021916908365ffffffffffff1602179055505b60008760010160008865ffffffffffff1665ffffffffffff16815260200190815260200160002060000160009054906101000a900473ffffffffffffffffffffffffffffffffffffffff16905060008860010160008965ffffffffffff1665ffffffffffff1681526020019081526020016000206001015490508860010160008965ffffffffffff1665ffffffffffff168152602001908152602001600020600080820160006101000a81549073ffffffffffffffffffffffffffffffffffffffff02191690556000820160146101000a81549065ffffffffffff021916905560008201601a6101000a81549065ffffffffffff021916905560018201600090555050600065ffffffffffff168465ffffffffffff16148015614d885750600065ffffffffffff168365ffffffffffff16145b8282965096509650505050509250925092565b600080600065ffffffffffff168465ffffffffffff1603614de8576040517f563c81d300000000000000000000000000000000000000000000000000000000815260040160405180910390fd5b60008560010160008665ffffffffffff1665ffffffffffff168152602001908152602001600020600101549050838660010160008765ffffffffffff1665ffffffffffff168152602001908152602001600020600101819055508560010160008665ffffffffffff1665ffffffffffff16815260200190815260200160002060000160009054906101000a900473ffffffffffffffffffffffffffffffffffffffff16819250925050935093915050565b6040518060800160405280600073ffffffffffffffffffffffffffffffffffffffff168152602001600065ffffffffffff168152602001600065ffffffffffff168152602001600081525090565b604051806040016040528060006fffffffffffffffffffffffffffffffff168152602001606081525090565b6040518060600160405280600065ffffffffffff168152602001600073ffffffffffffffffffffffffffffffffffffffff168152602001600081525090565b600080fd5b600080fd5b6000819050919050565b614f6f81614f5c565b8114614f7a57600080fd5b50565b600081359050614f8c81614f66565b92915050565b60006fffffffffffffffffffffffffffffffff82169050919050565b614fb781614f92565b8114614fc257600080fd5b50565b600081359050614fd481614fae565b92915050565b600080fd5b600080fd5b600080fd5b60008083601f840112614fff57614ffe614fda565b5b8235905067ffffffffffffffff81111561501c5761501b614fdf565b5b60208301915083602082028301111561503857615037614fe4565b5b9250929050565b6000806000806000806080878903121561505c5761505b614f52565b5b600061506a89828a01614f7d565b965050602061507b89828a01614fc5565b955050604087013567ffffffffffffffff81111561509c5761509b614f57565b5b6150a889828a01614fe9565b9450945050606087013567ffffffffffffffff8111156150cb576150ca614f57565b5b6150d789828a01614fe9565b92509250509295509295509295565b600065ffffffffffff82169050919050565b615101816150e6565b82525050565b600060208201905061511c60008301846150f8565b92915050565b60006020828403121561513857615137614f52565b5b600061514684828501614f7d565b91505092915050565b600073ffffffffffffffffffffffffffffffffffffffff82169050919050565b600061517a8261514f565b9050919050565b61518a8161516f565b82525050565b60006020820190506151a56000830184615181565b92915050565b600080604083850312156151c2576151c1614f52565b5b60006151d085828601614f7d565b92505060206151e185828601614f7d565b9150509250929050565b6151f481614f5c565b82525050565b600060208201905061520f60008301846151eb565b92915050565b600081519050919050565b600082825260208201905092915050565b6000819050602082019050919050565b61524a81614f92565b82525050565b600081519050919050565b600082825260208201905092915050565b6000819050602082019050919050565b615285816150e6565b82525050565b6152948161516f565b82525050565b6152a381614f5c565b82525050565b6060820160008201516152bf600085018261527c565b5060208201516152d2602085018261528b565b5060408201516152e5604085018261529a565b50505050565b60006152f783836152a9565b60608301905092915050565b6000602082019050919050565b600061531b82615250565b615325818561525b565b93506153308361526c565b8060005b8381101561536157815161534888826152eb565b975061535383615303565b925050600181019050615334565b5085935050505092915050565b60006040830160008301516153866000860182615241565b506020830151848203602086015261539e8282615310565b9150508091505092915050565b60006153b7838361536e565b905092915050565b6000602082019050919050565b60006153d782615215565b6153e18185615220565b9350836020820285016153f385615231565b8060005b8581101561542f578484038952815161541085826153ab565b945061541b836153bf565b925060208a019950506001810190506153f7565b50829750879550505050505092915050565b6000602082019050818103600083015261545b81846153cc565b905092915050565b60006020828403121561547957615478614f52565b5b600061548784828501614fc5565b91505092915050565b600082825260208201905092915050565b60006154ac82615250565b6154b68185615490565b93506154c18361526c565b8060005b838110156154f25781516154d988826152eb565b97506154e483615303565b9250506001810190506154c5565b5085935050505092915050565b6000602082019050818103600083015261551981846154a1565b905092915050565b61552a816150e6565b811461553557600080fd5b50565b60008135905061554781615521565b92915050565b6000806040838503121561556457615563614f52565b5b600061557285828601615538565b925050602061558385828601614fc5565b9150509250929050565b600081519050919050565b600082825260208201905092915050565b6000819050602082019050919050565b60006155c58383615241565b60208301905092915050565b6000602082019050919050565b60006155e98261558d565b6155f38185615598565b93506155fe836155a9565b8060005b8381101561562f57815161561688826155b9565b9750615621836155d1565b925050600181019050615602565b5085935050505092915050565b6000602082019050818103600083015261565681846155de565b905092915050565b60008060008060008060008060c0898b03121561567e5761567d614f52565b5b600061568c8b828c01615538565b985050602061569d8b828c01614fc5565b97505060406156ae8b828c01614fc5565b96505060606156bf8b828c01614f7d565b955050608089013567ffffffffffffffff8111156156e0576156df614f57565b5b6156ec8b828c01614fe9565b945094505060a089013567ffffffffffffffff81111561570f5761570e614f57565b5b61571b8b828c01614fe9565b92509250509295985092959890939650565b61573681614f92565b82525050565b6000602082019050615751600083018461572d565b92915050565b6000806040838503121561576e5761576d614f52565b5b600061577c85828601614fc5565b925050602061578d85828601615538565b9150509250929050565b6080820160008201516157ad600085018261528b565b5060208201516157c0602085018261527c565b5060408201516157d3604085018261527c565b5060608201516157e6606085018261529a565b50505050565b60006080820190506158016000830184615797565b92915050565b600060608201905061581c6000830186615181565b6158296020830185615181565b61583660408301846151eb565b949350505050565b60008115159050919050565b6158538161583e565b811461585e57600080fd5b50565b6000815190506158708161584a565b92915050565b60006020828403121561588c5761588b614f52565b5b600061589a84828501615861565b91505092915050565b7f4e487b7100000000000000000000000000000000000000000000000000000000600052601160045260246000fd5b60006158dd82614f5c565b91506158e883614f5c565b92508282026158f681614f5c565b9150828204841483151761590d5761590c6158a3565b5b5092915050565b7f4e487b7100000000000000000000000000000000000000000000000000000000600052601260045260246000fd5b600061594e82614f5c565b915061595983614f5c565b92508261596957615968615914565b5b828204905092915050565b600061597f82614f5c565b915061598a83614f5c565b92508282039050818111156159a2576159a16158a3565b5b92915050565b60006040820190506159bd6000830185615181565b6159ca60208301846151eb565b9392505050565b60008160011c9050919050565b6000808291508390505b6001851115615a2857808604811115615a0457615a036158a3565b5b6001851615615a135780820291505b8081029050615a21856159d1565b94506159e8565b94509492505050565b600082615a415760019050615afd565b81615a4f5760009050615afd565b8160018114615a655760028114615a6f57615a9e565b6001915050615afd565b60ff841115615a8157615a806158a3565b5b8360020a915084821115615a9857615a976158a3565b5b50615afd565b5060208310610133831016604e8410600b8410161715615ad35782820a905083811115615ace57615acd6158a3565b5b615afd565b615ae084848460016159de565b92509050818404811115615af757615af66158a3565b5b81810290505b9392505050565b6000615b0f82614f5c565b9150615b1a83614f5c565b9250615b477fffffffffffffffffffffffffffffffffffffffffffffffffffffffffffffffff8484615a31565b905092915050565b6000615b5a82614f5c565b9150615b6583614f5c565b9250828201905080821115615b7d57615b7c6158a3565b5b92915050565b600060ff82169050919050565b6000615b9b82614f92565b9150615ba683615b83565b9250615bc36fffffffffffffffffffffffffffffffff8484615a31565b905092915050565b6000615bd682614f92565b9150615be183614f92565b925082615bf157615bf0615914565b5b828204905092915050565b7f4e487b7100000000000000000000000000000000000000000000000000000000600052604160045260246000fd5b6000615c3682614f5c565b91507fffffffffffffffffffffffffffffffffffffffffffffffffffffffffffffffff8203615c6857615c676158a3565b5b600182019050919050565b7f4e487b7100000000000000000000000000000000000000000000000000000000600052603260045260246000fd5b6000615cad82614f92565b91506fffffffffffffffffffffffffffffffff8203615ccf57615cce6158a3565b5b600182019050919050565b6000615ce5826150e6565b915065ffffffffffff8203615cfd57615cfc6158a3565b5b60018201905091905056fea26469706673582212200fe643159ee132be89687c3a12b0410c0ddfc32dddc5c34320ca30d194a4784b64736f6c63430008130033",
    "linkReferences": {}
  },
  "methodIdentifiers": {
    "amountPlusFee(uint256)": "1d87d0e9",
    "basisPoint()": "2f7b1915",
    "buyOrderAtPrice(uint128,uint48)": "f20b1d6a",
    "buyOrdersAndPrices()": "b1ccceb0",
    "buyOrdersAtPrice(uint128)": "6e8ff5c8",
    "buyOrdersPrices()": "e9b5b7c4",
    "feeRecipient()": "46904840",
    "invertPrice(uint128)": "9a7fbabb",
    "modifyBuyLimitOrder(uint48,uint128,uint128,uint256,uint128[],uint128[])": "941e875b",
    "modifySellLimitOrder(uint48,uint128,uint128,uint256,uint128[],uint128[])": "7b71825c",
    "placeBuyLimitOrder(uint256,uint128,uint128[],uint128[])": "068496a7",
    "placeBuyMarketOrder(uint256)": "52fc7c34",
    "placeSellLimitOrder(uint256,uint128,uint128[],uint128[])": "e155cc87",
    "placeSellMarketOrder(uint256)": "085048b9",
    "pricePrecision()": "ad5c6ec5",
    "protocolFee()": "b0e21e8a",
    "removeBuyLimitOrder(uint48,uint128)": "fc82ce33",
    "removeSellLimitOrder(uint48,uint128)": "5b7f257a",
    "sellOrderAtPrice(uint128,uint48)": "e4bb65a6",
    "sellOrdersAndPrices()": "2b02a3a6",
    "sellOrdersAtPrice(uint128)": "35a595fe",
    "sellOrdersPrices()": "762eacd8",
    "tokenA()": "0fc63d10",
    "tokenADecimals()": "b5f4abf9",
    "tokenAToTokenB(uint256,uint256)": "6cac3f8c",
    "tokenAToTokenBDecimals(uint256)": "4656463e",
    "tokenB()": "5f64b55b",
    "tokenBDecimals()": "485391a0",
    "tokenBToTokenA(uint256,uint256)": "12dabcd6",
    "tokenBToTokenADecimals(uint256)": "5eee1747"
  },
  "id": 23
}