{
  "abi": [
    {
      "inputs": [
        {
          "internalType": "address",
          "name": "tokenA_",
          "type": "address"
        },
        {
          "internalType": "address",
          "name": "tokenB_",
          "type": "address"
        }
      ],
      "stateMutability": "nonpayable",
      "type": "constructor"
    },
    {
      "inputs": [
        {
          "internalType": "address",
          "name": "maker",
          "type": "address"
        }
      ],
      "name": "OnlyMakerError",
      "type": "error"
    },
    {
      "inputs": [],
      "name": "OrderDoesNotExistError",
      "type": "error"
    },
    {
      "inputs": [],
      "name": "PriceBiggerThanNextError",
      "type": "error"
    },
    {
      "inputs": [],
      "name": "PriceBracketDoesNotExistError",
      "type": "error"
    },
    {
      "inputs": [],
      "name": "PriceSmallerThanPrevError",
      "type": "error"
    },
    {
      "inputs": [
        {
          "internalType": "uint256",
          "name": "amount",
          "type": "uint256"
        }
      ],
      "name": "SameAmountError",
      "type": "error"
    },
    {
      "anonymous": false,
      "inputs": [
        {
          "indexed": true,
          "internalType": "uint48",
          "name": "orderId",
          "type": "uint48"
        },
        {
          "indexed": true,
          "internalType": "uint128",
          "name": "price",
          "type": "uint128"
        },
        {
          "indexed": true,
          "internalType": "address",
          "name": "maker",
          "type": "address"
        },
        {
          "indexed": false,
          "internalType": "uint256",
          "name": "amount",
          "type": "uint256"
        }
      ],
      "name": "BuyLimitOrderCancelled",
      "type": "event"
    },
    {
      "anonymous": false,
      "inputs": [
        {
          "indexed": true,
          "internalType": "uint48",
          "name": "orderId",
          "type": "uint48"
        },
        {
          "indexed": true,
          "internalType": "uint128",
          "name": "price",
          "type": "uint128"
        },
        {
          "indexed": true,
          "internalType": "address",
          "name": "maker",
          "type": "address"
        },
        {
          "indexed": false,
          "internalType": "uint256",
          "name": "amount",
          "type": "uint256"
        }
      ],
      "name": "BuyLimitOrderFilled",
      "type": "event"
    },
    {
      "anonymous": false,
      "inputs": [
        {
          "indexed": true,
          "internalType": "uint48",
          "name": "orderId",
          "type": "uint48"
        },
        {
          "indexed": true,
          "internalType": "uint128",
          "name": "price",
          "type": "uint128"
        },
        {
          "indexed": true,
          "internalType": "address",
          "name": "maker",
          "type": "address"
        },
        {
          "indexed": false,
          "internalType": "uint256",
          "name": "amount",
          "type": "uint256"
        }
      ],
      "name": "BuyLimitOrderModified",
      "type": "event"
    },
    {
      "anonymous": false,
      "inputs": [
        {
          "indexed": true,
          "internalType": "uint48",
          "name": "orderId",
          "type": "uint48"
        },
        {
          "indexed": true,
          "internalType": "uint128",
          "name": "price",
          "type": "uint128"
        },
        {
          "indexed": true,
          "internalType": "address",
          "name": "maker",
          "type": "address"
        },
        {
          "indexed": false,
          "internalType": "uint256",
          "name": "amount",
          "type": "uint256"
        }
      ],
      "name": "BuyLimitOrderPlaced",
      "type": "event"
    },
    {
      "anonymous": false,
      "inputs": [
        {
          "indexed": false,
          "internalType": "uint256",
          "name": "timestamp",
          "type": "uint256"
        },
        {
          "indexed": true,
          "internalType": "uint256",
          "name": "price",
          "type": "uint256"
        },
        {
          "indexed": true,
          "internalType": "address",
          "name": "maker",
          "type": "address"
        },
        {
          "indexed": false,
          "internalType": "uint256",
          "name": "amount",
          "type": "uint256"
        }
      ],
      "name": "BuyMarketOrderFilled",
      "type": "event"
    },
    {
      "anonymous": false,
      "inputs": [
        {
          "indexed": true,
          "internalType": "uint48",
          "name": "orderId",
          "type": "uint48"
        },
        {
          "indexed": true,
          "internalType": "uint128",
          "name": "price",
          "type": "uint128"
        },
        {
          "indexed": true,
          "internalType": "address",
          "name": "maker",
          "type": "address"
        },
        {
          "indexed": false,
          "internalType": "uint256",
          "name": "amount",
          "type": "uint256"
        }
      ],
      "name": "SellLimitOrderCancelled",
      "type": "event"
    },
    {
      "anonymous": false,
      "inputs": [
        {
          "indexed": true,
          "internalType": "uint48",
          "name": "orderId",
          "type": "uint48"
        },
        {
          "indexed": true,
          "internalType": "uint128",
          "name": "price",
          "type": "uint128"
        },
        {
          "indexed": true,
          "internalType": "address",
          "name": "maker",
          "type": "address"
        },
        {
          "indexed": false,
          "internalType": "uint256",
          "name": "amount",
          "type": "uint256"
        }
      ],
      "name": "SellLimitOrderFilled",
      "type": "event"
    },
    {
      "anonymous": false,
      "inputs": [
        {
          "indexed": true,
          "internalType": "uint48",
          "name": "orderId",
          "type": "uint48"
        },
        {
          "indexed": true,
          "internalType": "uint128",
          "name": "price",
          "type": "uint128"
        },
        {
          "indexed": true,
          "internalType": "address",
          "name": "maker",
          "type": "address"
        },
        {
          "indexed": false,
          "internalType": "uint256",
          "name": "amount",
          "type": "uint256"
        }
      ],
      "name": "SellLimitOrderModified",
      "type": "event"
    },
    {
      "anonymous": false,
      "inputs": [
        {
          "indexed": true,
          "internalType": "uint48",
          "name": "orderId",
          "type": "uint48"
        },
        {
          "indexed": true,
          "internalType": "uint128",
          "name": "price",
          "type": "uint128"
        },
        {
          "indexed": true,
          "internalType": "address",
          "name": "maker",
          "type": "address"
        },
        {
          "indexed": false,
          "internalType": "uint256",
          "name": "amount",
          "type": "uint256"
        }
      ],
      "name": "SellLimitOrderPlaced",
      "type": "event"
    },
    {
      "anonymous": false,
      "inputs": [
        {
          "indexed": false,
          "internalType": "uint256",
          "name": "timestamp",
          "type": "uint256"
        },
        {
          "indexed": true,
          "internalType": "uint256",
          "name": "price",
          "type": "uint256"
        },
        {
          "indexed": true,
          "internalType": "address",
          "name": "maker",
          "type": "address"
        },
        {
          "indexed": false,
          "internalType": "uint256",
          "name": "amount",
          "type": "uint256"
        }
      ],
      "name": "SellMarketOrderFilled",
      "type": "event"
    },
    {
      "inputs": [
        {
          "internalType": "uint256",
          "name": "amount_",
          "type": "uint256"
        }
      ],
      "name": "amountPlusFee",
      "outputs": [
        {
          "internalType": "uint256",
          "name": "",
          "type": "uint256"
        }
      ],
      "stateMutability": "pure",
      "type": "function"
    },
    {
      "inputs": [],
      "name": "basisPoint",
      "outputs": [
        {
          "internalType": "uint256",
          "name": "",
          "type": "uint256"
        }
      ],
      "stateMutability": "pure",
      "type": "function"
    },
    {
      "inputs": [
        {
          "internalType": "uint128",
          "name": "price_",
          "type": "uint128"
        },
        {
          "internalType": "uint48",
          "name": "orderId_",
          "type": "uint48"
        }
      ],
      "name": "buyOrderAtPrice",
      "outputs": [
        {
          "components": [
            {
              "internalType": "address",
              "name": "maker",
              "type": "address"
            },
            {
              "internalType": "uint48",
              "name": "prev",
              "type": "uint48"
            },
            {
              "internalType": "uint48",
              "name": "next",
              "type": "uint48"
            },
            {
              "internalType": "uint256",
              "name": "amount",
              "type": "uint256"
            }
          ],
          "internalType": "struct LibLinkedOrders.Order",
          "name": "order_",
          "type": "tuple"
        }
      ],
      "stateMutability": "view",
      "type": "function"
    },
    {
      "inputs": [],
      "name": "buyOrdersAndPrices",
      "outputs": [
        {
          "components": [
            {
              "internalType": "uint128",
              "name": "price",
              "type": "uint128"
            },
            {
              "components": [
                {
                  "internalType": "uint48",
                  "name": "id",
                  "type": "uint48"
                },
                {
                  "internalType": "address",
                  "name": "maker",
                  "type": "address"
                },
                {
                  "internalType": "uint256",
                  "name": "amount",
                  "type": "uint256"
                }
              ],
              "internalType": "struct LibLinkedOrders.ViewOrder[]",
              "name": "orders",
              "type": "tuple[]"
            }
          ],
          "internalType": "struct LibPriceBrackets.OrdersByPrice[]",
          "name": "orders_",
          "type": "tuple[]"
        }
      ],
      "stateMutability": "view",
      "type": "function"
    },
    {
      "inputs": [
        {
          "internalType": "uint128",
          "name": "price_",
          "type": "uint128"
        }
      ],
      "name": "buyOrdersAtPrice",
      "outputs": [
        {
          "components": [
            {
              "internalType": "uint48",
              "name": "id",
              "type": "uint48"
            },
            {
              "internalType": "address",
              "name": "maker",
              "type": "address"
            },
            {
              "internalType": "uint256",
              "name": "amount",
              "type": "uint256"
            }
          ],
          "internalType": "struct LibLinkedOrders.ViewOrder[]",
          "name": "orders_",
          "type": "tuple[]"
        }
      ],
      "stateMutability": "view",
      "type": "function"
    },
    {
      "inputs": [],
      "name": "buyOrdersPrices",
      "outputs": [
        {
          "internalType": "uint128[]",
          "name": "prices_",
          "type": "uint128[]"
        }
      ],
      "stateMutability": "view",
      "type": "function"
    },
    {
      "inputs": [],
      "name": "feeRecipient",
      "outputs": [
        {
          "internalType": "address",
          "name": "",
          "type": "address"
        }
      ],
      "stateMutability": "view",
      "type": "function"
    },
    {
      "inputs": [
        {
          "internalType": "uint128",
          "name": "price_",
          "type": "uint128"
        }
      ],
      "name": "invertPrice",
      "outputs": [
        {
          "internalType": "uint128",
          "name": "",
          "type": "uint128"
        }
      ],
      "stateMutability": "pure",
      "type": "function"
    },
    {
      "inputs": [
        {
          "internalType": "uint48",
          "name": "orderId_",
          "type": "uint48"
        },
        {
          "internalType": "uint128",
          "name": "oldPrice_",
          "type": "uint128"
        },
        {
          "internalType": "uint128",
          "name": "newPrice_",
          "type": "uint128"
        },
        {
          "internalType": "uint256",
          "name": "newAmount_",
          "type": "uint256"
        },
        {
          "internalType": "uint128[]",
          "name": "prevs_",
          "type": "uint128[]"
        },
        {
          "internalType": "uint128[]",
          "name": "nexts_",
          "type": "uint128[]"
        }
      ],
      "name": "modifyBuyLimitOrder",
      "outputs": [
        {
          "internalType": "uint48",
          "name": "",
          "type": "uint48"
        }
      ],
      "stateMutability": "nonpayable",
      "type": "function"
    },
    {
      "inputs": [
        {
          "internalType": "uint48",
          "name": "orderId_",
          "type": "uint48"
        },
        {
          "internalType": "uint128",
          "name": "oldPrice_",
          "type": "uint128"
        },
        {
          "internalType": "uint128",
          "name": "newPrice_",
          "type": "uint128"
        },
        {
          "internalType": "uint256",
          "name": "newAmount_",
          "type": "uint256"
        },
        {
          "internalType": "uint128[]",
          "name": "prevs_",
          "type": "uint128[]"
        },
        {
          "internalType": "uint128[]",
          "name": "nexts_",
          "type": "uint128[]"
        }
      ],
      "name": "modifySellLimitOrder",
      "outputs": [
        {
          "internalType": "uint48",
          "name": "",
          "type": "uint48"
        }
      ],
      "stateMutability": "nonpayable",
      "type": "function"
    },
    {
      "inputs": [
        {
          "internalType": "uint256",
          "name": "amount_",
          "type": "uint256"
        },
        {
          "internalType": "uint128",
          "name": "price_",
          "type": "uint128"
        },
        {
          "internalType": "uint128[]",
          "name": "prevs_",
          "type": "uint128[]"
        },
        {
          "internalType": "uint128[]",
          "name": "nexts_",
          "type": "uint128[]"
        }
      ],
      "name": "placeBuyLimitOrder",
      "outputs": [
        {
          "internalType": "uint48",
          "name": "orderId_",
          "type": "uint48"
        }
      ],
      "stateMutability": "nonpayable",
      "type": "function"
    },
    {
      "inputs": [
        {
          "internalType": "uint256",
          "name": "tokenBamount_",
          "type": "uint256"
        }
      ],
      "name": "placeBuyMarketOrder",
      "outputs": [],
      "stateMutability": "nonpayable",
      "type": "function"
    },
    {
      "inputs": [
        {
          "internalType": "uint256",
          "name": "amount_",
          "type": "uint256"
        },
        {
          "internalType": "uint128",
          "name": "price_",
          "type": "uint128"
        },
        {
          "internalType": "uint128[]",
          "name": "prevs_",
          "type": "uint128[]"
        },
        {
          "internalType": "uint128[]",
          "name": "nexts_",
          "type": "uint128[]"
        }
      ],
      "name": "placeSellLimitOrder",
      "outputs": [
        {
          "internalType": "uint48",
          "name": "orderId_",
          "type": "uint48"
        }
      ],
      "stateMutability": "nonpayable",
      "type": "function"
    },
    {
      "inputs": [
        {
          "internalType": "uint256",
          "name": "tokenAamount_",
          "type": "uint256"
        }
      ],
      "name": "placeSellMarketOrder",
      "outputs": [],
      "stateMutability": "nonpayable",
      "type": "function"
    },
    {
      "inputs": [],
      "name": "pricePrecision",
      "outputs": [
        {
          "internalType": "uint128",
          "name": "",
          "type": "uint128"
        }
      ],
      "stateMutability": "pure",
      "type": "function"
    },
    {
      "inputs": [],
      "name": "protocolFee",
      "outputs": [
        {
          "internalType": "uint256",
          "name": "",
          "type": "uint256"
        }
      ],
      "stateMutability": "pure",
      "type": "function"
    },
    {
      "inputs": [
        {
          "internalType": "uint48",
          "name": "orderId_",
          "type": "uint48"
        },
        {
          "internalType": "uint128",
          "name": "price_",
          "type": "uint128"
        }
      ],
      "name": "removeBuyLimitOrder",
      "outputs": [],
      "stateMutability": "nonpayable",
      "type": "function"
    },
    {
      "inputs": [
        {
          "internalType": "uint48",
          "name": "orderId_",
          "type": "uint48"
        },
        {
          "internalType": "uint128",
          "name": "price_",
          "type": "uint128"
        }
      ],
      "name": "removeSellLimitOrder",
      "outputs": [],
      "stateMutability": "nonpayable",
      "type": "function"
    },
    {
      "inputs": [
        {
          "internalType": "uint128",
          "name": "price_",
          "type": "uint128"
        },
        {
          "internalType": "uint48",
          "name": "orderId_",
          "type": "uint48"
        }
      ],
      "name": "sellOrderAtPrice",
      "outputs": [
        {
          "components": [
            {
              "internalType": "address",
              "name": "maker",
              "type": "address"
            },
            {
              "internalType": "uint48",
              "name": "prev",
              "type": "uint48"
            },
            {
              "internalType": "uint48",
              "name": "next",
              "type": "uint48"
            },
            {
              "internalType": "uint256",
              "name": "amount",
              "type": "uint256"
            }
          ],
          "internalType": "struct LibLinkedOrders.Order",
          "name": "order_",
          "type": "tuple"
        }
      ],
      "stateMutability": "view",
      "type": "function"
    },
    {
      "inputs": [],
      "name": "sellOrdersAndPrices",
      "outputs": [
        {
          "components": [
            {
              "internalType": "uint128",
              "name": "price",
              "type": "uint128"
            },
            {
              "components": [
                {
                  "internalType": "uint48",
                  "name": "id",
                  "type": "uint48"
                },
                {
                  "internalType": "address",
                  "name": "maker",
                  "type": "address"
                },
                {
                  "internalType": "uint256",
                  "name": "amount",
                  "type": "uint256"
                }
              ],
              "internalType": "struct LibLinkedOrders.ViewOrder[]",
              "name": "orders",
              "type": "tuple[]"
            }
          ],
          "internalType": "struct LibPriceBrackets.OrdersByPrice[]",
          "name": "orders_",
          "type": "tuple[]"
        }
      ],
      "stateMutability": "view",
      "type": "function"
    },
    {
      "inputs": [
        {
          "internalType": "uint128",
          "name": "price_",
          "type": "uint128"
        }
      ],
      "name": "sellOrdersAtPrice",
      "outputs": [
        {
          "components": [
            {
              "internalType": "uint48",
              "name": "id",
              "type": "uint48"
            },
            {
              "internalType": "address",
              "name": "maker",
              "type": "address"
            },
            {
              "internalType": "uint256",
              "name": "amount",
              "type": "uint256"
            }
          ],
          "internalType": "struct LibLinkedOrders.ViewOrder[]",
          "name": "orders_",
          "type": "tuple[]"
        }
      ],
      "stateMutability": "view",
      "type": "function"
    },
    {
      "inputs": [],
      "name": "sellOrdersPrices",
      "outputs": [
        {
          "internalType": "uint128[]",
          "name": "prices_",
          "type": "uint128[]"
        }
      ],
      "stateMutability": "view",
      "type": "function"
    },
    {
      "inputs": [],
      "name": "tokenA",
      "outputs": [
        {
          "internalType": "address",
          "name": "",
          "type": "address"
        }
      ],
      "stateMutability": "view",
      "type": "function"
    },
    {
      "inputs": [],
      "name": "tokenADecimals",
      "outputs": [
        {
          "internalType": "uint256",
          "name": "",
          "type": "uint256"
        }
      ],
      "stateMutability": "view",
      "type": "function"
    },
    {
      "inputs": [
        {
          "internalType": "uint256",
          "name": "amount_",
          "type": "uint256"
        },
        {
          "internalType": "uint256",
          "name": "price_",
          "type": "uint256"
        }
      ],
      "name": "tokenAToTokenB",
      "outputs": [
        {
          "internalType": "uint256",
          "name": "",
          "type": "uint256"
        }
      ],
      "stateMutability": "view",
      "type": "function"
    },
    {
      "inputs": [
        {
          "internalType": "uint256",
          "name": "amount_",
          "type": "uint256"
        }
      ],
      "name": "tokenAToTokenBDecimals",
      "outputs": [
        {
          "internalType": "uint256",
          "name": "",
          "type": "uint256"
        }
      ],
      "stateMutability": "view",
      "type": "function"
    },
    {
      "inputs": [],
      "name": "tokenB",
      "outputs": [
        {
          "internalType": "address",
          "name": "",
          "type": "address"
        }
      ],
      "stateMutability": "view",
      "type": "function"
    },
    {
      "inputs": [],
      "name": "tokenBDecimals",
      "outputs": [
        {
          "internalType": "uint256",
          "name": "",
          "type": "uint256"
        }
      ],
      "stateMutability": "view",
      "type": "function"
    },
    {
      "inputs": [
        {
          "internalType": "uint256",
          "name": "amount_",
          "type": "uint256"
        },
        {
          "internalType": "uint256",
          "name": "price_",
          "type": "uint256"
        }
      ],
      "name": "tokenBToTokenA",
      "outputs": [
        {
          "internalType": "uint256",
          "name": "",
          "type": "uint256"
        }
      ],
      "stateMutability": "view",
      "type": "function"
    },
    {
      "inputs": [
        {
          "internalType": "uint256",
          "name": "amount_",
          "type": "uint256"
        }
      ],
      "name": "tokenBToTokenADecimals",
      "outputs": [
        {
          "internalType": "uint256",
          "name": "",
          "type": "uint256"
        }
      ],
      "stateMutability": "view",
      "type": "function"
    }
  ],
  "bytecode": {
    "object": "0x6101206040523480156200001257600080fd5b50604051620061953803806200619583398181016040528101906200003891906200023f565b8173ffffffffffffffffffffffffffffffffffffffff1660c08173ffffffffffffffffffffffffffffffffffffffff16815250508073ffffffffffffffffffffffffffffffffffffffff1660e08173ffffffffffffffffffffffffffffffffffffffff16815250508173ffffffffffffffffffffffffffffffffffffffff1663313ce5676040518163ffffffff1660e01b8152600401602060405180830381865afa158015620000ec573d6000803e3d6000fd5b505050506040513d601f19601f82011682018060405250810190620001129190620002c4565b60ff16608081815250508073ffffffffffffffffffffffffffffffffffffffff1663313ce5676040518163ffffffff1660e01b8152600401602060405180830381865afa15801562000168573d6000803e3d6000fd5b505050506040513d601f19601f820116820180604052508101906200018e9190620002c4565b60ff1660a081815250503373ffffffffffffffffffffffffffffffffffffffff166101008173ffffffffffffffffffffffffffffffffffffffff16815250505050620002f6565b600080fd5b600073ffffffffffffffffffffffffffffffffffffffff82169050919050565b60006200020782620001da565b9050919050565b6200021981620001fa565b81146200022557600080fd5b50565b60008151905062000239816200020e565b92915050565b60008060408385031215620002595762000258620001d5565b5b6000620002698582860162000228565b92505060206200027c8582860162000228565b9150509250929050565b600060ff82169050919050565b6200029e8162000286565b8114620002aa57600080fd5b50565b600081519050620002be8162000293565b92915050565b600060208284031215620002dd57620002dc620001d5565b5b6000620002ed84828501620002ad565b91505092915050565b60805160a05160c05160e05161010051615d5e62000437600039600081816107580152818161096a01528181610dbe01528181610eea015261232601526000818161067a0152818161071b01528181610b0a01528181610e0c01528181610ead01528181610fad015281816113ed01528181611c5601528181611d210152818161203c015281816120ec01528181612544015261319301526000818161088c0152818161092d01528181610a2d01528181610c0d0152818161108a01528181611249015281816115f5015281816116c0015281816119db01528181611a8b01528181612248015281816122e901526129fb015260008181610c3601528181610d7301528181610de6015281816113750152611443015260008181610c6301528181610d46015281816113a20152818161141601526122010152615d5e6000f3fe608060405234801561001057600080fd5b50600436106101da5760003560e01c80636cac3f8c11610104578063b0e21e8a116100a2578063e4bb65a611610071578063e4bb65a6146105bd578063e9b5b7c4146105ed578063f20b1d6a1461060b578063fc82ce331461063b576101da565b8063b0e21e8a14610533578063b1ccceb014610551578063b5f4abf91461056f578063e155cc871461058d576101da565b80637b71825c116100de5780637b71825c14610485578063941e875b146104b55780639a7fbabb146104e5578063ad5c6ec514610515576101da565b80636cac3f8c146104075780636e8ff5c814610437578063762eacd814610467576101da565b806335a595fe1161017c57806352fc7c341161014b57806352fc7c34146103815780635b7f257a1461039d5780635eee1747146103b95780635f64b55b146103e9576101da565b806335a595fe146102e55780634656463e146103155780634690484014610345578063485391a014610363576101da565b806312dabcd6116101b857806312dabcd6146102495780631d87d0e9146102795780632b02a3a6146102a95780632f7b1915146102c7576101da565b8063068496a7146101df578063085048b91461020f5780630fc63d101461022b575b600080fd5b6101f960048036038101906101f49190615036565b610657565b60405161020691906150fe565b60405180910390f35b61022960048036038101906102249190615119565b61088a565b005b610233610c09565b6040516102409190615187565b60405180910390f35b610263600480360381019061025e91906151a2565b610c31565b60405161027091906151f1565b60405180910390f35b610293600480360381019061028e9190615119565b610cda565b6040516102a091906151f1565b60405180910390f35b6102b1610d0a565b6040516102be9190615438565b60405180910390f35b6102cf610d1b565b6040516102dc91906151f1565b60405180910390f35b6102ff60048036038101906102fa919061545a565b610d25565b60405161030c91906154f6565b60405180910390f35b61032f600480360381019061032a9190615119565b610d42565b60405161033c91906151f1565b60405180910390f35b61034d610dba565b60405161035a9190615187565b60405180910390f35b61036b610de2565b60405161037891906151f1565b60405180910390f35b61039b60048036038101906103969190615119565b610e0a565b005b6103b760048036038101906103b29190615544565b6111ba565b005b6103d360048036038101906103ce9190615119565b611371565b6040516103e091906151f1565b60405180910390f35b6103f16113e9565b6040516103fe9190615187565b60405180910390f35b610421600480360381019061041c91906151a2565b611411565b60405161042e91906151f1565b60405180910390f35b610451600480360381019061044c919061545a565b6114ba565b60405161045e91906154f6565b60405180910390f35b61046f6114d7565b60405161047c9190615633565b60405180910390f35b61049f600480360381019061049a9190615655565b6114e8565b6040516104ac91906150fe565b60405180910390f35b6104cf60048036038101906104ca9190615655565b611b49565b6040516104dc91906150fe565b60405180910390f35b6104ff60048036038101906104fa919061545a565b6121aa565b60405161050c9190615733565b60405180910390f35b61051d6121d3565b60405161052a9190615733565b60405180910390f35b61053b6121e3565b60405161054891906151f1565b60405180910390f35b6105596121ec565b6040516105669190615438565b60405180910390f35b6105776121fd565b60405161058491906151f1565b60405180910390f35b6105a760048036038101906105a29190615036565b612225565b6040516105b491906150fe565b60405180910390f35b6105d760048036038101906105d2919061574e565b612458565b6040516105e491906157e3565b60405180910390f35b6105f561247e565b6040516106029190615633565b60405180910390f35b6106256004803603810190610620919061574e565b61248f565b60405161063291906157e3565b60405180910390f35b61065560048036038101906106509190615544565b6124b5565b005b60008061067688886fffffffffffffffffffffffffffffffff16611411565b90507f000000000000000000000000000000000000000000000000000000000000000073ffffffffffffffffffffffffffffffffffffffff166323b872dd3330846040518463ffffffff1660e01b81526004016106d5939291906157fe565b6020604051808303816000875af11580156106f4573d6000803e3d6000fd5b505050506040513d601f19601f82011682018060405250810190610718919061586d565b507f000000000000000000000000000000000000000000000000000000000000000073ffffffffffffffffffffffffffffffffffffffff166323b872dd337f0000000000000000000000000000000000000000000000000000000000000000612710600a8661078791906158c9565b610791919061593a565b6040518463ffffffff1660e01b81526004016107af939291906157fe565b6020604051808303816000875af11580156107ce573d6000803e3d6000fd5b505050506040513d601f19601f820116820180604052508101906107f2919061586d565b5061081387338a89898989600061266c90979695949392919063ffffffff16565b91503373ffffffffffffffffffffffffffffffffffffffff16876fffffffffffffffffffffffffffffffff168365ffffffffffff167f45412d36a049a6018d01092421194c95c6842245eafd6084b20c995a2019539a8b60405161087791906151f1565b60405180910390a4509695505050505050565b7f000000000000000000000000000000000000000000000000000000000000000073ffffffffffffffffffffffffffffffffffffffff166323b872dd3330846040518463ffffffff1660e01b81526004016108e7939291906157fe565b6020604051808303816000875af1158015610906573d6000803e3d6000fd5b505050506040513d601f19601f8201168201806040525081019061092a919061586d565b507f000000000000000000000000000000000000000000000000000000000000000073ffffffffffffffffffffffffffffffffffffffff166323b872dd337f0000000000000000000000000000000000000000000000000000000000000000612710600a8661099991906158c9565b6109a3919061593a565b6040518463ffffffff1660e01b81526004016109c1939291906157fe565b6020604051808303816000875af11580156109e0573d6000803e3d6000fd5b505050506040513d601f19601f82011682018060405250810190610a04919061586d565b50600080610a20836129f96000612b089092919063ffffffff16565b91509150828214610ad6577f000000000000000000000000000000000000000000000000000000000000000073ffffffffffffffffffffffffffffffffffffffff1663a9059cbb338486610a74919061596b565b6040518363ffffffff1660e01b8152600401610a9192919061599f565b6020604051808303816000875af1158015610ab0573d6000803e3d6000fd5b505050506040513d601f19601f82011682018060405250810190610ad4919061586d565b505b6000670de0b6b3a76400006fffffffffffffffffffffffffffffffff16610afc83610d42565b610b06919061593a565b90507f000000000000000000000000000000000000000000000000000000000000000073ffffffffffffffffffffffffffffffffffffffff1663a9059cbb33836040518363ffffffff1660e01b8152600401610b6392919061599f565b6020604051808303816000875af1158015610b82573d6000803e3d6000fd5b505050506040513d601f19601f82011682018060405250810190610ba6919061586d565b503373ffffffffffffffffffffffffffffffffffffffff168383610bca919061593a565b7f61daf5c91865d509d4dd23930cdf4e7566d3cb96807b7c86c43c03ee6d8291294284604051610bfb9291906159c8565b60405180910390a350505050565b60007f0000000000000000000000000000000000000000000000000000000000000000905090565b6000817f0000000000000000000000000000000000000000000000000000000000000000600a610c619190615b24565b7f0000000000000000000000000000000000000000000000000000000000000000600a610c8e9190615b24565b670de0b6b3a76400006fffffffffffffffffffffffffffffffff1686610cb491906158c9565b610cbe91906158c9565b610cc8919061593a565b610cd2919061593a565b905092915050565b6000612710600a612710610cee9190615b6f565b83610cf991906158c9565b610d03919061593a565b9050919050565b6060610d166002612e80565b905090565b6000612710905090565b6060610d3b82600261314390919063ffffffff16565b9050919050565b60007f0000000000000000000000000000000000000000000000000000000000000000600a610d719190615b24565b7f0000000000000000000000000000000000000000000000000000000000000000600a610d9e9190615b24565b83610da991906158c9565b610db3919061593a565b9050919050565b60007f0000000000000000000000000000000000000000000000000000000000000000905090565b60007f0000000000000000000000000000000000000000000000000000000000000000905090565b7f000000000000000000000000000000000000000000000000000000000000000073ffffffffffffffffffffffffffffffffffffffff166323b872dd3330846040518463ffffffff1660e01b8152600401610e67939291906157fe565b6020604051808303816000875af1158015610e86573d6000803e3d6000fd5b505050506040513d601f19601f82011682018060405250810190610eaa919061586d565b507f000000000000000000000000000000000000000000000000000000000000000073ffffffffffffffffffffffffffffffffffffffff166323b872dd337f0000000000000000000000000000000000000000000000000000000000000000612710600a86610f1991906158c9565b610f23919061593a565b6040518463ffffffff1660e01b8152600401610f41939291906157fe565b6020604051808303816000875af1158015610f60573d6000803e3d6000fd5b505050506040513d601f19601f82011682018060405250810190610f84919061586d565b50600080610fa0836131916002612b089092919063ffffffff16565b91509150828214611056577f000000000000000000000000000000000000000000000000000000000000000073ffffffffffffffffffffffffffffffffffffffff1663a9059cbb338486610ff4919061596b565b6040518363ffffffff1660e01b815260040161101192919061599f565b6020604051808303816000875af1158015611030573d6000803e3d6000fd5b505050506040513d601f19601f82011682018060405250810190611054919061586d565b505b6000670de0b6b3a76400006fffffffffffffffffffffffffffffffff1661107c83611371565b611086919061593a565b90507f000000000000000000000000000000000000000000000000000000000000000073ffffffffffffffffffffffffffffffffffffffff1663a9059cbb33836040518363ffffffff1660e01b81526004016110e392919061599f565b6020604051808303816000875af1158015611102573d6000803e3d6000fd5b505050506040513d601f19601f82011682018060405250810190611126919061586d565b503373ffffffffffffffffffffffffffffffffffffffff16826002670de0b6b3a76400006111549190615bb0565b6fffffffffffffffffffffffffffffffff168561117191906158c9565b61117b919061593a565b7f2cc61da9f4a36fd3e7899d5cf0b81cb4215b6f8244515df54f345f0540dc110442846040516111ac9291906159c8565b60405180910390a350505050565b6000806111d3838560026132a09092919063ffffffff16565b915091503373ffffffffffffffffffffffffffffffffffffffff168273ffffffffffffffffffffffffffffffffffffffff161461124757336040517fa56e5f2100000000000000000000000000000000000000000000000000000000815260040161123e9190615187565b60405180910390fd5b7f000000000000000000000000000000000000000000000000000000000000000073ffffffffffffffffffffffffffffffffffffffff1663a9059cbb836112a084876fffffffffffffffffffffffffffffffff16610c31565b6040518363ffffffff1660e01b81526004016112bd92919061599f565b6020604051808303816000875af11580156112dc573d6000803e3d6000fd5b505050506040513d601f19601f82011682018060405250810190611300919061586d565b508173ffffffffffffffffffffffffffffffffffffffff16836fffffffffffffffffffffffffffffffff168565ffffffffffff167f9125b76e079102ec1e857457b50b74b3da3b02ace31b6a3b770c368b46e59c858460405161136391906151f1565b60405180910390a450505050565b60007f0000000000000000000000000000000000000000000000000000000000000000600a6113a09190615b24565b7f0000000000000000000000000000000000000000000000000000000000000000600a6113cd9190615b24565b836113d891906158c9565b6113e2919061593a565b9050919050565b60007f0000000000000000000000000000000000000000000000000000000000000000905090565b6000817f0000000000000000000000000000000000000000000000000000000000000000600a6114419190615b24565b7f0000000000000000000000000000000000000000000000000000000000000000600a61146e9190615b24565b670de0b6b3a76400006fffffffffffffffffffffffffffffffff168661149491906158c9565b61149e91906158c9565b6114a8919061593a565b6114b2919061593a565b905092915050565b60606114d082600061314390919063ffffffff16565b9050919050565b60606114e360026136af565b905090565b6000806000886fffffffffffffffffffffffffffffffff168a6fffffffffffffffffffffffffffffffff16036117f8576115308a8c8a6002613936909392919063ffffffff16565b80925081935050503373ffffffffffffffffffffffffffffffffffffffff168273ffffffffffffffffffffffffffffffffffffffff16146115a857336040517fa56e5f2100000000000000000000000000000000000000000000000000000000815260040161159f9190615187565b60405180910390fd5b8781036115ec57806040517f323dea3a0000000000000000000000000000000000000000000000000000000081526004016115e391906151f1565b60405180910390fd5b8088106116be577f000000000000000000000000000000000000000000000000000000000000000073ffffffffffffffffffffffffffffffffffffffff166323b872dd3330611658858d611640919061596b565b8f6fffffffffffffffffffffffffffffffff16610c31565b6040518463ffffffff1660e01b8152600401611676939291906157fe565b6020604051808303816000875af1158015611695573d6000803e3d6000fd5b505050506040513d601f19601f820116820180604052508101906116b9919061586d565b611783565b7f000000000000000000000000000000000000000000000000000000000000000073ffffffffffffffffffffffffffffffffffffffff1663a9059cbb836117228b8561170a919061596b565b8e6fffffffffffffffffffffffffffffffff16610c31565b6040518363ffffffff1660e01b815260040161173f92919061599f565b6020604051808303816000875af115801561175e573d6000803e3d6000fd5b505050506040513d601f19601f82011682018060405250810190611782919061586d565b5b508173ffffffffffffffffffffffffffffffffffffffff168a6fffffffffffffffffffffffffffffffff168c65ffffffffffff167fc44d92397d913a304cd35e0433b84de159c0aaaba55ddf109f948e22c2c4f91e8b6040516117e691906151f1565b60405180910390a48a92505050611b3d565b61180e8a8c60026132a09092919063ffffffff16565b80925081935050503373ffffffffffffffffffffffffffffffffffffffff168273ffffffffffffffffffffffffffffffffffffffff161461188657336040517fa56e5f2100000000000000000000000000000000000000000000000000000000815260040161187d9190615187565b60405180910390fd5b60006118a88a848b8b8b8b8b600261266c90979695949392919063ffffffff16565b905060006118c8838d6fffffffffffffffffffffffffffffffff16610c31565b905060006118e88b8d6fffffffffffffffffffffffffffffffff16610c31565b90508473ffffffffffffffffffffffffffffffffffffffff168d6fffffffffffffffffffffffffffffffff168f65ffffffffffff167f9125b76e079102ec1e857457b50b74b3da3b02ace31b6a3b770c368b46e59c858760405161194c91906151f1565b60405180910390a48473ffffffffffffffffffffffffffffffffffffffff168c6fffffffffffffffffffffffffffffffff168f65ffffffffffff167ff8313879ec08b845c25b193ba297021d21c918847906972e6ef2f47e083b85f18e6040516119b691906151f1565b60405180910390a48082036119d2578295505050505050611b3d565b818110611a89577f000000000000000000000000000000000000000000000000000000000000000073ffffffffffffffffffffffffffffffffffffffff166323b872dd33308585611a23919061596b565b6040518463ffffffff1660e01b8152600401611a41939291906157fe565b6020604051808303816000875af1158015611a60573d6000803e3d6000fd5b505050506040513d601f19601f82011682018060405250810190611a84919061586d565b611b33565b7f000000000000000000000000000000000000000000000000000000000000000073ffffffffffffffffffffffffffffffffffffffff1663a9059cbb868385611ad2919061596b565b6040518363ffffffff1660e01b8152600401611aef92919061599f565b6020604051808303816000875af1158015611b0e573d6000803e3d6000fd5b505050506040513d601f19601f82011682018060405250810190611b32919061586d565b5b5082955050505050505b98975050505050505050565b6000806000886fffffffffffffffffffffffffffffffff168a6fffffffffffffffffffffffffffffffff1603611e5957611b918a8c8a6000613936909392919063ffffffff16565b80925081935050503373ffffffffffffffffffffffffffffffffffffffff168273ffffffffffffffffffffffffffffffffffffffff1614611c0957336040517fa56e5f21000000000000000000000000000000000000000000000000000000008152600401611c009190615187565b60405180910390fd5b878103611c4d57806040517f323dea3a000000000000000000000000000000000000000000000000000000008152600401611c4491906151f1565b60405180910390fd5b808810611d1f577f000000000000000000000000000000000000000000000000000000000000000073ffffffffffffffffffffffffffffffffffffffff166323b872dd3330611cb9858d611ca1919061596b565b8f6fffffffffffffffffffffffffffffffff16611411565b6040518463ffffffff1660e01b8152600401611cd7939291906157fe565b6020604051808303816000875af1158015611cf6573d6000803e3d6000fd5b505050506040513d601f19601f82011682018060405250810190611d1a919061586d565b611de4565b7f000000000000000000000000000000000000000000000000000000000000000073ffffffffffffffffffffffffffffffffffffffff1663a9059cbb83611d838b85611d6b919061596b565b8e6fffffffffffffffffffffffffffffffff16611411565b6040518363ffffffff1660e01b8152600401611da092919061599f565b6020604051808303816000875af1158015611dbf573d6000803e3d6000fd5b505050506040513d601f19601f82011682018060405250810190611de3919061586d565b5b508173ffffffffffffffffffffffffffffffffffffffff168a6fffffffffffffffffffffffffffffffff168c65ffffffffffff167f66f9a2a890553e6eb7b17a8db12f99be69bfdf5e82d1449f52dc4b1b13dd646c8b604051611e4791906151f1565b60405180910390a48a9250505061219e565b611e6f8a8c60006132a09092919063ffffffff16565b80925081935050503373ffffffffffffffffffffffffffffffffffffffff168273ffffffffffffffffffffffffffffffffffffffff1614611ee757336040517fa56e5f21000000000000000000000000000000000000000000000000000000008152600401611ede9190615187565b60405180910390fd5b6000611f098a848b8b8b8b8b600061266c90979695949392919063ffffffff16565b90506000611f29838d6fffffffffffffffffffffffffffffffff16611411565b90506000611f498b8d6fffffffffffffffffffffffffffffffff16611411565b90508473ffffffffffffffffffffffffffffffffffffffff168d6fffffffffffffffffffffffffffffffff168f65ffffffffffff167f1cc70e5a955a8411cef289fd01e01b6768a8ee513ee33f1806db4151a94126af87604051611fad91906151f1565b60405180910390a48473ffffffffffffffffffffffffffffffffffffffff168c6fffffffffffffffffffffffffffffffff168f65ffffffffffff167f45412d36a049a6018d01092421194c95c6842245eafd6084b20c995a2019539a8e60405161201791906151f1565b60405180910390a480820361203357829550505050505061219e565b8181106120ea577f000000000000000000000000000000000000000000000000000000000000000073ffffffffffffffffffffffffffffffffffffffff166323b872dd33308585612084919061596b565b6040518463ffffffff1660e01b81526004016120a2939291906157fe565b6020604051808303816000875af11580156120c1573d6000803e3d6000fd5b505050506040513d601f19601f820116820180604052508101906120e5919061586d565b612194565b7f000000000000000000000000000000000000000000000000000000000000000073ffffffffffffffffffffffffffffffffffffffff1663a9059cbb868385612133919061596b565b6040518363ffffffff1660e01b815260040161215092919061599f565b6020604051808303816000875af115801561216f573d6000803e3d6000fd5b505050506040513d601f19601f82011682018060405250810190612193919061586d565b5b5082955050505050505b98975050505050505050565b6000816002670de0b6b3a76400006121c29190615bb0565b6121cc9190615beb565b9050919050565b6000670de0b6b3a7640000905090565b6000600a905090565b60606121f86000612e80565b905090565b60007f0000000000000000000000000000000000000000000000000000000000000000905090565b60008061224488886fffffffffffffffffffffffffffffffff16610c31565b90507f000000000000000000000000000000000000000000000000000000000000000073ffffffffffffffffffffffffffffffffffffffff166323b872dd3330846040518463ffffffff1660e01b81526004016122a3939291906157fe565b6020604051808303816000875af11580156122c2573d6000803e3d6000fd5b505050506040513d601f19601f820116820180604052508101906122e6919061586d565b507f000000000000000000000000000000000000000000000000000000000000000073ffffffffffffffffffffffffffffffffffffffff166323b872dd337f0000000000000000000000000000000000000000000000000000000000000000612710600a8661235591906158c9565b61235f919061593a565b6040518463ffffffff1660e01b815260040161237d939291906157fe565b6020604051808303816000875af115801561239c573d6000803e3d6000fd5b505050506040513d601f19601f820116820180604052508101906123c0919061586d565b506123e187338a89898989600261266c90979695949392919063ffffffff16565b91503373ffffffffffffffffffffffffffffffffffffffff16876fffffffffffffffffffffffffffffffff168365ffffffffffff167ff8313879ec08b845c25b193ba297021d21c918847906972e6ef2f47e083b85f18b60405161244591906151f1565b60405180910390a4509695505050505050565b612460614e90565b612476838360026139d69092919063ffffffff16565b905092915050565b606061248a60006136af565b905090565b612497614e90565b6124ad838360006139d69092919063ffffffff16565b905092915050565b6000806124ce838560006132a09092919063ffffffff16565b915091503373ffffffffffffffffffffffffffffffffffffffff168273ffffffffffffffffffffffffffffffffffffffff161461254257336040517fa56e5f210000000000000000000000000000000000000000000000000000000081526004016125399190615187565b60405180910390fd5b7f000000000000000000000000000000000000000000000000000000000000000073ffffffffffffffffffffffffffffffffffffffff1663a9059cbb8361259b84876fffffffffffffffffffffffffffffffff16611411565b6040518363ffffffff1660e01b81526004016125b892919061599f565b6020604051808303816000875af11580156125d7573d6000803e3d6000fd5b505050506040513d601f19601f820116820180604052508101906125fb919061586d565b508173ffffffffffffffffffffffffffffffffffffffff16836fffffffffffffffffffffffffffffffff168565ffffffffffff167f1cc70e5a955a8411cef289fd01e01b6768a8ee513ee33f1806db4151a94126af8460405161265e91906151f1565b60405180910390a450505050565b60006126788989613b0a565b156126d4576126cd87878b60010160008c6fffffffffffffffffffffffffffffffff166fffffffffffffffffffffffffffffffff168152602001908152602001600020600101613b719092919063ffffffff16565b90506129ed565b60006126e28a87878c613da8565b905060006126f28b86868d614076565b9050818b60010160008c6fffffffffffffffffffffffffffffffff166fffffffffffffffffffffffffffffffff16815260200190815260200160002060000160006101000a8154816fffffffffffffffffffffffffffffffff02191690836fffffffffffffffffffffffffffffffff160217905550808b60010160008c6fffffffffffffffffffffffffffffffff166fffffffffffffffffffffffffffffffff16815260200190815260200160002060000160106101000a8154816fffffffffffffffffffffffffffffffff02191690836fffffffffffffffffffffffffffffffff16021790555061282a89898d60010160008e6fffffffffffffffffffffffffffffffff166fffffffffffffffffffffffffffffffff168152602001908152602001600020600101613b719092919063ffffffff16565b925060006fffffffffffffffffffffffffffffffff16826fffffffffffffffffffffffffffffffff16146128cf57898b6001016000846fffffffffffffffffffffffffffffffff166fffffffffffffffffffffffffffffffff16815260200190815260200160002060000160106101000a8154816fffffffffffffffffffffffffffffffff02191690836fffffffffffffffffffffffffffffffff160217905561290a565b898b60000160006101000a8154816fffffffffffffffffffffffffffffffff02191690836fffffffffffffffffffffffffffffffff16021790555b5060006fffffffffffffffffffffffffffffffff16816fffffffffffffffffffffffffffffffff16146129ae57898b6001016000836fffffffffffffffffffffffffffffffff166fffffffffffffffffffffffffffffffff16815260200190815260200160002060000160006101000a8154816fffffffffffffffffffffffffffffffff02191690836fffffffffffffffffffffffffffffffff16021790556129e9565b898b60000160106101000a8154816fffffffffffffffffffffffffffffffff02191690836fffffffffffffffffffffffffffffffff16021790555b5050505b98975050505050505050565b7f000000000000000000000000000000000000000000000000000000000000000073ffffffffffffffffffffffffffffffffffffffff1663a9059cbb83836040518363ffffffff1660e01b8152600401612a5492919061599f565b6020604051808303816000875af1158015612a73573d6000803e3d6000fd5b505050506040513d601f19601f82011682018060405250810190612a97919061586d565b508173ffffffffffffffffffffffffffffffffffffffff16836fffffffffffffffffffffffffffffffff168565ffffffffffff167f3c56bae8c9fd1f1fe9c08e97f61bc37e3481b42850a893898db146991cae2e0484604051612afa91906151f1565b60405180910390a450505050565b60008060008560000160009054906101000a90046fffffffffffffffffffffffffffffffff169050600081905060006fffffffffffffffffffffffffffffffff16816fffffffffffffffffffffffffffffffff1603612b6f57600080935093505050612e78565b60008060005b8887108015612ba9575060006fffffffffffffffffffffffffffffffff16846fffffffffffffffffffffffffffffffff1614155b15612dbb57612c0b878a612bbd919061596b565b858a8d6001016000896fffffffffffffffffffffffffffffffff166fffffffffffffffffffffffffffffffff16815260200190815260200160002060010161434c909392919063ffffffff16565b80925081945050508287612c1f9190615b6f565b9650836fffffffffffffffffffffffffffffffff166002670de0b6b3a7640000612c499190615bb0565b6fffffffffffffffffffffffffffffffff1684612c6691906158c9565b612c70919061593a565b86612c7b9190615b6f565b9550896001016000856fffffffffffffffffffffffffffffffff166fffffffffffffffffffffffffffffffff16815260200190815260200160002060000160109054906101000a90046fffffffffffffffffffffffffffffffff1691508015612db657896001016000856fffffffffffffffffffffffffffffffff166fffffffffffffffffffffffffffffffff168152602001908152602001600020600080820160006101000a8154906fffffffffffffffffffffffffffffffff02191690556000820160106101000a8154906fffffffffffffffffffffffffffffffff021916905560018201600080820160006101000a81549065ffffffffffff02191690556000820160066101000a81549065ffffffffffff021916905560008201600c6101000a81549065ffffffffffff0219169055505050508193505b612b75565b846fffffffffffffffffffffffffffffffff16846fffffffffffffffffffffffffffffffff1614612e2257838a60000160006101000a8154816fffffffffffffffffffffffffffffffff02191690836fffffffffffffffffffffffffffffffff1602179055505b60006fffffffffffffffffffffffffffffffff16846fffffffffffffffffffffffffffffffff1603612e72578960000160106101000a8154906fffffffffffffffffffffffffffffffff02191690555b50505050505b935093915050565b60606000808360000160009054906101000a90046fffffffffffffffffffffffffffffffff1690506000816fffffffffffffffffffffffffffffffff1603612f2057600067ffffffffffffffff811115612edd57612edc615c1c565b5b604051908082528060200260200182016040528015612f1657816020015b612f03614ede565b815260200190600190039081612efb5790505b509250505061313e565b600061138867ffffffffffffffff811115612f3e57612f3d615c1c565b5b604051908082528060200260200182016040528015612f7757816020015b612f64614ede565b815260200190600190039081612f5c5790505b5090505b6000826fffffffffffffffffffffffffffffffff1614613055576000612fa18684613143565b90506040518060400160405280846fffffffffffffffffffffffffffffffff16815260200182815250828580612fd690615c4b565b965081518110612fe957612fe8615c93565b5b6020026020010181905250856001016000846fffffffffffffffffffffffffffffffff166fffffffffffffffffffffffffffffffff16815260200190815260200160002060000160109054906101000a90046fffffffffffffffffffffffffffffffff16925050612f7b565b8267ffffffffffffffff81111561306f5761306e615c1c565b5b6040519080825280602002602001820160405280156130a857816020015b613095614ede565b81526020019060019003908161308d5790505b509350600091505b82826fffffffffffffffffffffffffffffffff16101561313a5780826fffffffffffffffffffffffffffffffff16815181106130ef576130ee615c93565b5b602002602001015184836fffffffffffffffffffffffffffffffff168151811061311c5761311b615c93565b5b6020026020010181905250818061313290615cc2565b9250506130b0565b5050505b919050565b6060613189836001016000846fffffffffffffffffffffffffffffffff166fffffffffffffffffffffffffffffffff1681526020019081526020016000206001016146f3565b905092915050565b7f000000000000000000000000000000000000000000000000000000000000000073ffffffffffffffffffffffffffffffffffffffff1663a9059cbb83836040518363ffffffff1660e01b81526004016131ec92919061599f565b6020604051808303816000875af115801561320b573d6000803e3d6000fd5b505050506040513d601f19601f8201168201806040525081019061322f919061586d565b508173ffffffffffffffffffffffffffffffffffffffff16836fffffffffffffffffffffffffffffffff168565ffffffffffff167fcb9529298e8d29ae05e64f7b347dbcc481f7adcab7d022ede826d72f4fe12b938460405161329291906151f1565b60405180910390a450505050565b6000806132ad8585613b0a565b6132e3576040517f973685ff00000000000000000000000000000000000000000000000000000000815260040160405180910390fd5b6000806000613336868960010160008a6fffffffffffffffffffffffffffffffff166fffffffffffffffffffffffffffffffff168152602001908152602001600020600101614a3690919063ffffffff16565b9250925092508261334f578181945094505050506136a7565b6000886001016000896fffffffffffffffffffffffffffffffff166fffffffffffffffffffffffffffffffff16815260200190815260200160002060000160009054906101000a90046fffffffffffffffffffffffffffffffff16905060008960010160008a6fffffffffffffffffffffffffffffffff166fffffffffffffffffffffffffffffffff16815260200190815260200160002060000160109054906101000a90046fffffffffffffffffffffffffffffffff16905060006fffffffffffffffffffffffffffffffff16826fffffffffffffffffffffffffffffffff16146134ac57808a6001016000846fffffffffffffffffffffffffffffffff166fffffffffffffffffffffffffffffffff16815260200190815260200160002060000160106101000a8154816fffffffffffffffffffffffffffffffff02191690836fffffffffffffffffffffffffffffffff16021790556134e7565b808a60000160006101000a8154816fffffffffffffffffffffffffffffffff02191690836fffffffffffffffffffffffffffffffff16021790555b5060006fffffffffffffffffffffffffffffffff16816fffffffffffffffffffffffffffffffff161461358b57818a6001016000836fffffffffffffffffffffffffffffffff166fffffffffffffffffffffffffffffffff16815260200190815260200160002060000160006101000a8154816fffffffffffffffffffffffffffffffff02191690836fffffffffffffffffffffffffffffffff16021790556135c6565b818a60000160106101000a8154816fffffffffffffffffffffffffffffffff02191690836fffffffffffffffffffffffffffffffff16021790555b508960010160008a6fffffffffffffffffffffffffffffffff166fffffffffffffffffffffffffffffffff168152602001908152602001600020600080820160006101000a8154906fffffffffffffffffffffffffffffffff02191690556000820160106101000a8154906fffffffffffffffffffffffffffffffff021916905560018201600080820160006101000a81549065ffffffffffff02191690556000820160066101000a81549065ffffffffffff021916905560008201600c6101000a81549065ffffffffffff02191690555050505083839650965050505050505b935093915050565b60606000808360000160009054906101000a90046fffffffffffffffffffffffffffffffff1690506000816fffffffffffffffffffffffffffffffff160361374457600067ffffffffffffffff81111561370c5761370b615c1c565b5b60405190808252806020026020018201604052801561373a5781602001602082028036833780820191505090505b5092505050613931565b61138867ffffffffffffffff8111156137605761375f615c1c565b5b60405190808252806020026020018201604052801561378e5781602001602082028036833780820191505090505b5092505b6000816fffffffffffffffffffffffffffffffff161461385e57808383806137b990615c4b565b9450815181106137cc576137cb615c93565b5b60200260200101906fffffffffffffffffffffffffffffffff1690816fffffffffffffffffffffffffffffffff1681525050836001016000826fffffffffffffffffffffffffffffffff166fffffffffffffffffffffffffffffffff16815260200190815260200160002060000160109054906101000a90046fffffffffffffffffffffffffffffffff169050613792565b60008267ffffffffffffffff81111561387a57613879615c1c565b5b6040519080825280602002602001820160405280156138a85781602001602082028036833780820191505090505b50905060005b83811015613929578481815181106138c9576138c8615c93565b5b60200260200101518282815181106138e4576138e3615c93565b5b60200260200101906fffffffffffffffffffffffffffffffff1690816fffffffffffffffffffffffffffffffff1681525050808061392190615c4b565b9150506138ae565b508093505050505b919050565b6000806139438686613b0a565b613979576040517f973685ff00000000000000000000000000000000000000000000000000000000815260040160405180910390fd5b6139c98484886001016000896fffffffffffffffffffffffffffffffff166fffffffffffffffffffffffffffffffff168152602001908152602001600020600101614d929092919063ffffffff16565b9150915094509492505050565b6139de614e90565b836001016000846fffffffffffffffffffffffffffffffff166fffffffffffffffffffffffffffffffff16815260200190815260200160002060010160010160008365ffffffffffff1665ffffffffffff1681526020019081526020016000206040518060800160405290816000820160009054906101000a900473ffffffffffffffffffffffffffffffffffffffff1673ffffffffffffffffffffffffffffffffffffffff1673ffffffffffffffffffffffffffffffffffffffff1681526020016000820160149054906101000a900465ffffffffffff1665ffffffffffff1665ffffffffffff16815260200160008201601a9054906101000a900465ffffffffffff1665ffffffffffff1665ffffffffffff16815260200160018201548152505090509392505050565b600080836001016000846fffffffffffffffffffffffffffffffff166fffffffffffffffffffffffffffffffff16815260200190815260200160002060010160000160009054906101000a900465ffffffffffff1665ffffffffffff161415905092915050565b600083600001600c81819054906101000a900465ffffffffffff16613b9590615cfa565b91906101000a81548165ffffffffffff021916908365ffffffffffff1602179055905060008460000160069054906101000a900465ffffffffffff16905060405180608001604052808573ffffffffffffffffffffffffffffffffffffffff1681526020018265ffffffffffff168152602001600065ffffffffffff168152602001848152508560010160008465ffffffffffff1665ffffffffffff16815260200190815260200160002060008201518160000160006101000a81548173ffffffffffffffffffffffffffffffffffffffff021916908373ffffffffffffffffffffffffffffffffffffffff16021790555060208201518160000160146101000a81548165ffffffffffff021916908365ffffffffffff160217905550604082015181600001601a6101000a81548165ffffffffffff021916908365ffffffffffff16021790555060608201518160010155905050600065ffffffffffff168165ffffffffffff1614613d5157818560010160008365ffffffffffff1665ffffffffffff168152602001908152602001600020600001601a6101000a81548165ffffffffffff021916908365ffffffffffff1602179055613d78565b818560000160006101000a81548165ffffffffffff021916908365ffffffffffff16021790555b50818560000160066101000a81548165ffffffffffff021916908365ffffffffffff160217905550509392505050565b6000805b613ddd86868684818110613dc357613dc2615c93565b5b9050602002016020810190613dd8919061545a565b613b0a565b158015613e36575060006fffffffffffffffffffffffffffffffff16858583818110613e0c57613e0b615c93565b5b9050602002016020810190613e21919061545a565b6fffffffffffffffffffffffffffffffff1614155b15613e8257806001019050848490508103613e7d576040517f973685ff00000000000000000000000000000000000000000000000000000000815260040160405180910390fd5b613dac565b6000858583818110613e9757613e96615c93565b5b9050602002016020810190613eac919061545a565b905060006fffffffffffffffffffffffffffffffff16816fffffffffffffffffffffffffffffffff16148015613f2557508660000160009054906101000a90046fffffffffffffffffffffffffffffffff166fffffffffffffffffffffffffffffffff16846fffffffffffffffffffffffffffffffff16115b15613f4e578660000160009054906101000a90046fffffffffffffffffffffffffffffffff1690505b5b836fffffffffffffffffffffffffffffffff16816fffffffffffffffffffffffffffffffff16108015613fa7575060006fffffffffffffffffffffffffffffffff16816fffffffffffffffffffffffffffffffff1614155b1561400f57809250866001016000846fffffffffffffffffffffffffffffffff166fffffffffffffffffffffffffffffffff16815260200190815260200160002060000160109054906101000a90046fffffffffffffffffffffffffffffffff169050613f4f565b826fffffffffffffffffffffffffffffffff16846fffffffffffffffffffffffffffffffff161161406c576040517f3fc045d300000000000000000000000000000000000000000000000000000000815260040160405180910390fd5b5050949350505050565b6000805b6140ab8686868481811061409157614090615c93565b5b90506020020160208101906140a6919061545a565b613b0a565b158015614104575060006fffffffffffffffffffffffffffffffff168585838181106140da576140d9615c93565b5b90506020020160208101906140ef919061545a565b6fffffffffffffffffffffffffffffffff1614155b156141505780600101905084849050810361414b576040517f973685ff00000000000000000000000000000000000000000000000000000000815260040160405180910390fd5b61407a565b600085858381811061416557614164615c93565b5b905060200201602081019061417a919061545a565b905060008760000160109054906101000a90046fffffffffffffffffffffffffffffffff16905060006fffffffffffffffffffffffffffffffff16826fffffffffffffffffffffffffffffffff161480156141f85750806fffffffffffffffffffffffffffffffff16856fffffffffffffffffffffffffffffffff16105b15614221578760000160109054906101000a90046fffffffffffffffffffffffffffffffff1691505b5b846fffffffffffffffffffffffffffffffff16826fffffffffffffffffffffffffffffffff1611156142b157819350876001016000856fffffffffffffffffffffffffffffffff166fffffffffffffffffffffffffffffffff16815260200190815260200160002060000160009054906101000a90046fffffffffffffffffffffffffffffffff169150614222565b836fffffffffffffffffffffffffffffffff16856fffffffffffffffffffffffffffffffff161015801561430a575060006fffffffffffffffffffffffffffffffff16846fffffffffffffffffffffffffffffffff1614155b15614341576040517fcdc16b7b00000000000000000000000000000000000000000000000000000000815260040160405180910390fd5b505050949350505050565b60008060008660000160009054906101000a900465ffffffffffff169050600065ffffffffffff168165ffffffffffff1603614390576000600192509250506146ea565b60008760010160008365ffffffffffff1665ffffffffffff1681526020019081526020016000206001015490506000805b8883836143ce9190615b6f565b1161454b5782826143df9190615b6f565b91508960010160008565ffffffffffff1665ffffffffffff168152602001908152602001600020600001601a9054906101000a900465ffffffffffff16905061447684898c60010160008865ffffffffffff1665ffffffffffff16815260200190815260200160002060000160009054906101000a900473ffffffffffffffffffffffffffffffffffffffff16868b63ffffffff16565b8960010160008565ffffffffffff1665ffffffffffff168152602001908152602001600020600080820160006101000a81549073ffffffffffffffffffffffffffffffffffffffff02191690556000820160146101000a81549065ffffffffffff021916905560008201601a6101000a81549065ffffffffffff021916905560018201600090555050809350600065ffffffffffff168465ffffffffffff16031561454b578960010160008565ffffffffffff1665ffffffffffff1681526020019081526020016000206001015492506143c1565b600065ffffffffffff168465ffffffffffff16036145a5578960000160006101000a81549065ffffffffffff02191690558960000160066101000a81549065ffffffffffff021916905581600195509550505050506146ea565b6000821461462157838a60000160006101000a81548165ffffffffffff021916908365ffffffffffff16021790555060008a60010160008665ffffffffffff1665ffffffffffff16815260200190815260200160002060000160146101000a81548165ffffffffffff021916908365ffffffffffff1602179055505b8882036146385781600095509550505050506146ea565b8189614644919061596b565b8361464f919061596b565b8a60010160008665ffffffffffff1665ffffffffffff168152602001908152602001600020600101819055506146de84898c60010160008865ffffffffffff1665ffffffffffff16815260200190815260200160002060000160009054906101000a900473ffffffffffffffffffffffffffffffffffffffff16858d6146d5919061596b565b8b63ffffffff16565b88600095509550505050505b94509492505050565b606060008260000160009054906101000a900465ffffffffffff1690506000808265ffffffffffff160361477f57600067ffffffffffffffff81111561473c5761473b615c1c565b5b60405190808252806020026020018201604052801561477557816020015b614762614f0a565b81526020019060019003908161475a5790505b5092505050614a31565b83600001600c9054906101000a900465ffffffffffff1665ffffffffffff1667ffffffffffffffff8111156147b7576147b6615c1c565b5b6040519080825280602002602001820160405280156147f057816020015b6147dd614f0a565b8152602001906001900390816147d55790505b50925060005b60008365ffffffffffff16146149785760008560010160008565ffffffffffff1665ffffffffffff1681526020019081526020016000206040518060800160405290816000820160009054906101000a900473ffffffffffffffffffffffffffffffffffffffff1673ffffffffffffffffffffffffffffffffffffffff1673ffffffffffffffffffffffffffffffffffffffff1681526020016000820160149054906101000a900465ffffffffffff1665ffffffffffff1665ffffffffffff16815260200160008201601a9054906101000a900465ffffffffffff1665ffffffffffff1665ffffffffffff168152602001600182015481525050905060405180606001604052808565ffffffffffff168152602001826000015173ffffffffffffffffffffffffffffffffffffffff168152602001826060015181525085848061493f90615c4b565b95508151811061495257614951615c93565b5b602002602001018190525080604001519350818061496f90615c4b565b925050506147f6565b60008167ffffffffffffffff81111561499457614993615c1c565b5b6040519080825280602002602001820160405280156149cd57816020015b6149ba614f0a565b8152602001906001900390816149b25790505b509050600092505b81831015614a29578483815181106149f0576149ef615c93565b5b6020026020010151818481518110614a0b57614a0a615c93565b5b60200260200101819052508280614a2190615c4b565b9350506149d5565b809450505050505b919050565b60008060008065ffffffffffff168465ffffffffffff1603614a84576040517f563c81d300000000000000000000000000000000000000000000000000000000815260040160405180910390fd5b60008560010160008665ffffffffffff1665ffffffffffff16815260200190815260200160002060000160149054906101000a900465ffffffffffff16905060008660010160008765ffffffffffff1665ffffffffffff168152602001908152602001600020600001601a9054906101000a900465ffffffffffff1690508660000160009054906101000a900465ffffffffffff1665ffffffffffff168665ffffffffffff1603614b5b57808760000160006101000a81548165ffffffffffff021916908365ffffffffffff160217905550614ba7565b808760010160008465ffffffffffff1665ffffffffffff168152602001908152602001600020600001601a6101000a81548165ffffffffffff021916908365ffffffffffff1602179055505b8660000160069054906101000a900465ffffffffffff1665ffffffffffff168665ffffffffffff1603614c0057818760000160066101000a81548165ffffffffffff021916908365ffffffffffff160217905550614c4c565b818760010160008365ffffffffffff1665ffffffffffff16815260200190815260200160002060000160146101000a81548165ffffffffffff021916908365ffffffffffff1602179055505b60008760010160008865ffffffffffff1665ffffffffffff16815260200190815260200160002060000160009054906101000a900473ffffffffffffffffffffffffffffffffffffffff16905060008860010160008965ffffffffffff1665ffffffffffff1681526020019081526020016000206001015490508860010160008965ffffffffffff1665ffffffffffff168152602001908152602001600020600080820160006101000a81549073ffffffffffffffffffffffffffffffffffffffff02191690556000820160146101000a81549065ffffffffffff021916905560008201601a6101000a81549065ffffffffffff021916905560018201600090555050600065ffffffffffff168465ffffffffffff16148015614d7f5750600065ffffffffffff168365ffffffffffff16145b8282965096509650505050509250925092565b600080600065ffffffffffff168465ffffffffffff1603614ddf576040517f563c81d300000000000000000000000000000000000000000000000000000000815260040160405180910390fd5b60008560010160008665ffffffffffff1665ffffffffffff168152602001908152602001600020600101549050838660010160008765ffffffffffff1665ffffffffffff168152602001908152602001600020600101819055508560010160008665ffffffffffff1665ffffffffffff16815260200190815260200160002060000160009054906101000a900473ffffffffffffffffffffffffffffffffffffffff16819250925050935093915050565b6040518060800160405280600073ffffffffffffffffffffffffffffffffffffffff168152602001600065ffffffffffff168152602001600065ffffffffffff168152602001600081525090565b604051806040016040528060006fffffffffffffffffffffffffffffffff168152602001606081525090565b6040518060600160405280600065ffffffffffff168152602001600073ffffffffffffffffffffffffffffffffffffffff168152602001600081525090565b600080fd5b600080fd5b6000819050919050565b614f6681614f53565b8114614f7157600080fd5b50565b600081359050614f8381614f5d565b92915050565b60006fffffffffffffffffffffffffffffffff82169050919050565b614fae81614f89565b8114614fb957600080fd5b50565b600081359050614fcb81614fa5565b92915050565b600080fd5b600080fd5b600080fd5b60008083601f840112614ff657614ff5614fd1565b5b8235905067ffffffffffffffff81111561501357615012614fd6565b5b60208301915083602082028301111561502f5761502e614fdb565b5b9250929050565b6000806000806000806080878903121561505357615052614f49565b5b600061506189828a01614f74565b965050602061507289828a01614fbc565b955050604087013567ffffffffffffffff81111561509357615092614f4e565b5b61509f89828a01614fe0565b9450945050606087013567ffffffffffffffff8111156150c2576150c1614f4e565b5b6150ce89828a01614fe0565b92509250509295509295509295565b600065ffffffffffff82169050919050565b6150f8816150dd565b82525050565b600060208201905061511360008301846150ef565b92915050565b60006020828403121561512f5761512e614f49565b5b600061513d84828501614f74565b91505092915050565b600073ffffffffffffffffffffffffffffffffffffffff82169050919050565b600061517182615146565b9050919050565b61518181615166565b82525050565b600060208201905061519c6000830184615178565b92915050565b600080604083850312156151b9576151b8614f49565b5b60006151c785828601614f74565b92505060206151d885828601614f74565b9150509250929050565b6151eb81614f53565b82525050565b600060208201905061520660008301846151e2565b92915050565b600081519050919050565b600082825260208201905092915050565b6000819050602082019050919050565b61524181614f89565b82525050565b600081519050919050565b600082825260208201905092915050565b6000819050602082019050919050565b61527c816150dd565b82525050565b61528b81615166565b82525050565b61529a81614f53565b82525050565b6060820160008201516152b66000850182615273565b5060208201516152c96020850182615282565b5060408201516152dc6040850182615291565b50505050565b60006152ee83836152a0565b60608301905092915050565b6000602082019050919050565b600061531282615247565b61531c8185615252565b935061532783615263565b8060005b8381101561535857815161533f88826152e2565b975061534a836152fa565b92505060018101905061532b565b5085935050505092915050565b600060408301600083015161537d6000860182615238565b50602083015184820360208601526153958282615307565b9150508091505092915050565b60006153ae8383615365565b905092915050565b6000602082019050919050565b60006153ce8261520c565b6153d88185615217565b9350836020820285016153ea85615228565b8060005b85811015615426578484038952815161540785826153a2565b9450615412836153b6565b925060208a019950506001810190506153ee565b50829750879550505050505092915050565b6000602082019050818103600083015261545281846153c3565b905092915050565b6000602082840312156154705761546f614f49565b5b600061547e84828501614fbc565b91505092915050565b600082825260208201905092915050565b60006154a382615247565b6154ad8185615487565b93506154b883615263565b8060005b838110156154e95781516154d088826152e2565b97506154db836152fa565b9250506001810190506154bc565b5085935050505092915050565b600060208201905081810360008301526155108184615498565b905092915050565b615521816150dd565b811461552c57600080fd5b50565b60008135905061553e81615518565b92915050565b6000806040838503121561555b5761555a614f49565b5b60006155698582860161552f565b925050602061557a85828601614fbc565b9150509250929050565b600081519050919050565b600082825260208201905092915050565b6000819050602082019050919050565b60006155bc8383615238565b60208301905092915050565b6000602082019050919050565b60006155e082615584565b6155ea818561558f565b93506155f5836155a0565b8060005b8381101561562657815161560d88826155b0565b9750615618836155c8565b9250506001810190506155f9565b5085935050505092915050565b6000602082019050818103600083015261564d81846155d5565b905092915050565b60008060008060008060008060c0898b03121561567557615674614f49565b5b60006156838b828c0161552f565b98505060206156948b828c01614fbc565b97505060406156a58b828c01614fbc565b96505060606156b68b828c01614f74565b955050608089013567ffffffffffffffff8111156156d7576156d6614f4e565b5b6156e38b828c01614fe0565b945094505060a089013567ffffffffffffffff81111561570657615705614f4e565b5b6157128b828c01614fe0565b92509250509295985092959890939650565b61572d81614f89565b82525050565b60006020820190506157486000830184615724565b92915050565b6000806040838503121561576557615764614f49565b5b600061577385828601614fbc565b92505060206157848582860161552f565b9150509250929050565b6080820160008201516157a46000850182615282565b5060208201516157b76020850182615273565b5060408201516157ca6040850182615273565b5060608201516157dd6060850182615291565b50505050565b60006080820190506157f8600083018461578e565b92915050565b60006060820190506158136000830186615178565b6158206020830185615178565b61582d60408301846151e2565b949350505050565b60008115159050919050565b61584a81615835565b811461585557600080fd5b50565b60008151905061586781615841565b92915050565b60006020828403121561588357615882614f49565b5b600061589184828501615858565b91505092915050565b7f4e487b7100000000000000000000000000000000000000000000000000000000600052601160045260246000fd5b60006158d482614f53565b91506158df83614f53565b92508282026158ed81614f53565b915082820484148315176159045761590361589a565b5b5092915050565b7f4e487b7100000000000000000000000000000000000000000000000000000000600052601260045260246000fd5b600061594582614f53565b915061595083614f53565b9250826159605761595f61590b565b5b828204905092915050565b600061597682614f53565b915061598183614f53565b92508282039050818111156159995761599861589a565b5b92915050565b60006040820190506159b46000830185615178565b6159c160208301846151e2565b9392505050565b60006040820190506159dd60008301856151e2565b6159ea60208301846151e2565b9392505050565b60008160011c9050919050565b6000808291508390505b6001851115615a4857808604811115615a2457615a2361589a565b5b6001851615615a335780820291505b8081029050615a41856159f1565b9450615a08565b94509492505050565b600082615a615760019050615b1d565b81615a6f5760009050615b1d565b8160018114615a855760028114615a8f57615abe565b6001915050615b1d565b60ff841115615aa157615aa061589a565b5b8360020a915084821115615ab857615ab761589a565b5b50615b1d565b5060208310610133831016604e8410600b8410161715615af35782820a905083811115615aee57615aed61589a565b5b615b1d565b615b0084848460016159fe565b92509050818404811115615b1757615b1661589a565b5b81810290505b9392505050565b6000615b2f82614f53565b9150615b3a83614f53565b9250615b677fffffffffffffffffffffffffffffffffffffffffffffffffffffffffffffffff8484615a51565b905092915050565b6000615b7a82614f53565b9150615b8583614f53565b9250828201905080821115615b9d57615b9c61589a565b5b92915050565b600060ff82169050919050565b6000615bbb82614f89565b9150615bc683615ba3565b9250615be36fffffffffffffffffffffffffffffffff8484615a51565b905092915050565b6000615bf682614f89565b9150615c0183614f89565b925082615c1157615c1061590b565b5b828204905092915050565b7f4e487b7100000000000000000000000000000000000000000000000000000000600052604160045260246000fd5b6000615c5682614f53565b91507fffffffffffffffffffffffffffffffffffffffffffffffffffffffffffffffff8203615c8857615c8761589a565b5b600182019050919050565b7f4e487b7100000000000000000000000000000000000000000000000000000000600052603260045260246000fd5b6000615ccd82614f89565b91506fffffffffffffffffffffffffffffffff8203615cef57615cee61589a565b5b600182019050919050565b6000615d05826150dd565b915065ffffffffffff8203615d1d57615d1c61589a565b5b60018201905091905056fea264697066735822122066f2cb1674448b1f151daeb07b3057244a2eeff4b78641f853791d8cc7e487b664736f6c63430008130033",
    "linkReferences": {}
  },
  "methodIdentifiers": {
    "amountPlusFee(uint256)": "1d87d0e9",
    "basisPoint()": "2f7b1915",
    "buyOrderAtPrice(uint128,uint48)": "f20b1d6a",
    "buyOrdersAndPrices()": "b1ccceb0",
    "buyOrdersAtPrice(uint128)": "6e8ff5c8",
    "buyOrdersPrices()": "e9b5b7c4",
    "feeRecipient()": "46904840",
    "invertPrice(uint128)": "9a7fbabb",
    "modifyBuyLimitOrder(uint48,uint128,uint128,uint256,uint128[],uint128[])": "941e875b",
    "modifySellLimitOrder(uint48,uint128,uint128,uint256,uint128[],uint128[])": "7b71825c",
    "placeBuyLimitOrder(uint256,uint128,uint128[],uint128[])": "068496a7",
    "placeBuyMarketOrder(uint256)": "52fc7c34",
    "placeSellLimitOrder(uint256,uint128,uint128[],uint128[])": "e155cc87",
    "placeSellMarketOrder(uint256)": "085048b9",
    "pricePrecision()": "ad5c6ec5",
    "protocolFee()": "b0e21e8a",
    "removeBuyLimitOrder(uint48,uint128)": "fc82ce33",
    "removeSellLimitOrder(uint48,uint128)": "5b7f257a",
    "sellOrderAtPrice(uint128,uint48)": "e4bb65a6",
    "sellOrdersAndPrices()": "2b02a3a6",
    "sellOrdersAtPrice(uint128)": "35a595fe",
    "sellOrdersPrices()": "762eacd8",
    "tokenA()": "0fc63d10",
    "tokenADecimals()": "b5f4abf9",
    "tokenAToTokenB(uint256,uint256)": "6cac3f8c",
    "tokenAToTokenBDecimals(uint256)": "4656463e",
    "tokenB()": "5f64b55b",
    "tokenBDecimals()": "485391a0",
    "tokenBToTokenA(uint256,uint256)": "12dabcd6",
    "tokenBToTokenADecimals(uint256)": "5eee1747"
  },
  "id": 23
}