{
  "abi": [
    {
      "inputs": [],
      "stateMutability": "nonpayable",
      "type": "constructor"
    },
    {
      "inputs": [
        {
          "internalType": "uint256",
          "name": "index_",
          "type": "uint256"
        }
      ],
      "name": "getNNChunk",
      "outputs": [
        {
          "internalType": "string",
          "name": "",
          "type": "string"
        }
      ],
      "stateMutability": "view",
      "type": "function"
    },
    {
      "inputs": [],
      "name": "getNumberOfChunks",
      "outputs": [
        {
          "internalType": "uint256",
          "name": "",
          "type": "uint256"
        }
      ],
      "stateMutability": "view",
      "type": "function"
    },
    {
      "inputs": [
        {
          "internalType": "uint256",
          "name": "",
          "type": "uint256"
        }
      ],
      "name": "nnData",
      "outputs": [
        {
          "internalType": "address",
          "name": "",
          "type": "address"
        }
      ],
      "stateMutability": "view",
      "type": "function"
    },
    {
      "inputs": [],
      "name": "owner",
      "outputs": [
        {
          "internalType": "address",
          "name": "",
          "type": "address"
        }
      ],
      "stateMutability": "view",
      "type": "function"
    },
    {
      "inputs": [
        {
          "internalType": "bytes",
          "name": "nn_",
          "type": "bytes"
        }
      ],
      "name": "uploadNN",
      "outputs": [],
      "stateMutability": "nonpayable",
      "type": "function"
    }
  ],
  "bytecode": {
    "object": "0x608060405234801561001057600080fd5b50600180546001600160a01b031916331790556105be806100326000396000f3fe608060405234801561001057600080fd5b50600436106100575760003560e01c806315ba57a41461005c5780631e509f411461008c5780638da5cb5b1461009d578063a8643412146100b0578063b1d8081b146100c5575b600080fd5b61006f61006a36600461037e565b6100e5565b6040516001600160a01b0390911681526020015b60405180910390f35b600054604051908152602001610083565b60015461006f906001600160a01b031681565b6100c36100be366004610397565b61010f565b005b6100d86100d336600461037e565b610262565b604051610083919061042d565b600081815481106100f557600080fd5b6000918252602090912001546001600160a01b0316905081565b6001546001600160a01b0316331461015b5760405162461bcd60e51b815260206004820152600a60248201526937b7363c9037bbb732b960b11b60448201526064015b60405180910390fd5b6000610169615fff83610476565b610174906001610498565b905060005b8181101561025c5760006102188585610194615fff866104ab565b90615fff6101a3876001610498565b6101ad91906104ab565b88116101b957876101d1565b615fff6101c7876001610498565b6101d191906104ab565b926101de939291906104c2565b8080601f01602080910402602001604051908101604052809392919081815260200183838082843760009201919091525061029a92505050565b81546001810183556000928352602090922090910180546001600160a01b0319166001600160a01b0390921691909117905580610254816104ec565b915050610179565b50505050565b60606102946000838154811061027a5761027a610505565b6000918252602090912001546001600160a01b031661033f565b92915050565b600080826040516020016102ae919061051b565b60405160208183030381529060405290506000816040516020016102d29190610541565b60405160208183030381529060405290508051602082016000f092506001600160a01b0383166103385760405162461bcd60e51b81526020600482015260116024820152701111541313d65351539517d19052531151607a1b6044820152606401610152565b5050919050565b606061029482600161035b816001600160a01b0384163b610575565b60408051603f8301601f19168101909152818152818360208301863c9392505050565b60006020828403121561039057600080fd5b5035919050565b600080602083850312156103aa57600080fd5b823567ffffffffffffffff808211156103c257600080fd5b818501915085601f8301126103d657600080fd5b8135818111156103e557600080fd5b8660208285010111156103f757600080fd5b60209290920196919550909350505050565b60005b8381101561042457818101518382015260200161040c565b50506000910152565b602081526000825180602084015261044c816040850160208701610409565b601f01601f19169190910160400192915050565b634e487b7160e01b600052601160045260246000fd5b60008261049357634e487b7160e01b600052601260045260246000fd5b500490565b8082018082111561029457610294610460565b808202811582820484141761029457610294610460565b600080858511156104d257600080fd5b838611156104df57600080fd5b5050820193919092039150565b6000600182016104fe576104fe610460565b5060010190565b634e487b7160e01b600052603260045260246000fd5b6000815260008251610534816001850160208701610409565b9190910160010192915050565b6a600b5981380380925939f360a81b8152815160009061056881600b850160208701610409565b91909101600b0192915050565b818103818111156102945761029461046056fea2646970667358221220937c2da91bcc92122322ff6df37818b5ada8fab0f464a46cf01ca4e675fa9ea164736f6c63430008140033",
    "linkReferences": {}
  },
  "methodIdentifiers": {
    "getNNChunk(uint256)": "b1d8081b",
    "getNumberOfChunks()": "1e509f41",
    "nnData(uint256)": "15ba57a4",
    "owner()": "8da5cb5b",
    "uploadNN(bytes)": "a8643412"
  },
  "id": 21
}