{
  "abi": [
    {
      "inputs": [],
      "stateMutability": "nonpayable",
      "type": "constructor"
    },
    {
      "anonymous": false,
      "inputs": [
        {
          "indexed": true,
          "internalType": "address",
          "name": "owner",
          "type": "address"
        },
        {
          "indexed": true,
          "internalType": "address",
          "name": "spender",
          "type": "address"
        },
        {
          "indexed": false,
          "internalType": "uint256",
          "name": "value",
          "type": "uint256"
        }
      ],
      "name": "Approval",
      "type": "event"
    },
    {
      "anonymous": false,
      "inputs": [
        {
          "indexed": true,
          "internalType": "address",
          "name": "from",
          "type": "address"
        },
        {
          "indexed": true,
          "internalType": "address",
          "name": "to",
          "type": "address"
        },
        {
          "indexed": false,
          "internalType": "uint256",
          "name": "value",
          "type": "uint256"
        }
      ],
      "name": "Transfer",
      "type": "event"
    },
    {
      "inputs": [
        {
          "internalType": "address",
          "name": "owner",
          "type": "address"
        },
        {
          "internalType": "address",
          "name": "spender",
          "type": "address"
        }
      ],
      "name": "allowance",
      "outputs": [
        {
          "internalType": "uint256",
          "name": "",
          "type": "uint256"
        }
      ],
      "stateMutability": "view",
      "type": "function"
    },
    {
      "inputs": [
        {
          "internalType": "address",
          "name": "spender",
          "type": "address"
        },
        {
          "internalType": "uint256",
          "name": "amount",
          "type": "uint256"
        }
      ],
      "name": "approve",
      "outputs": [
        {
          "internalType": "bool",
          "name": "",
          "type": "bool"
        }
      ],
      "stateMutability": "nonpayable",
      "type": "function"
    },
    {
      "inputs": [
        {
          "internalType": "address",
          "name": "account",
          "type": "address"
        }
      ],
      "name": "balanceOf",
      "outputs": [
        {
          "internalType": "uint256",
          "name": "",
          "type": "uint256"
        }
      ],
      "stateMutability": "view",
      "type": "function"
    },
    {
      "inputs": [],
      "name": "decimals",
      "outputs": [
        {
          "internalType": "uint8",
          "name": "",
          "type": "uint8"
        }
      ],
      "stateMutability": "view",
      "type": "function"
    },
    {
      "inputs": [
        {
          "internalType": "address",
          "name": "spender",
          "type": "address"
        },
        {
          "internalType": "uint256",
          "name": "subtractedValue",
          "type": "uint256"
        }
      ],
      "name": "decreaseAllowance",
      "outputs": [
        {
          "internalType": "bool",
          "name": "",
          "type": "bool"
        }
      ],
      "stateMutability": "nonpayable",
      "type": "function"
    },
    {
      "inputs": [],
      "name": "faucet",
      "outputs": [],
      "stateMutability": "nonpayable",
      "type": "function"
    },
    {
      "inputs": [
        {
          "internalType": "address",
          "name": "spender",
          "type": "address"
        },
        {
          "internalType": "uint256",
          "name": "addedValue",
          "type": "uint256"
        }
      ],
      "name": "increaseAllowance",
      "outputs": [
        {
          "internalType": "bool",
          "name": "",
          "type": "bool"
        }
      ],
      "stateMutability": "nonpayable",
      "type": "function"
    },
    {
      "inputs": [],
      "name": "name",
      "outputs": [
        {
          "internalType": "string",
          "name": "",
          "type": "string"
        }
      ],
      "stateMutability": "view",
      "type": "function"
    },
    {
      "inputs": [],
      "name": "symbol",
      "outputs": [
        {
          "internalType": "string",
          "name": "",
          "type": "string"
        }
      ],
      "stateMutability": "view",
      "type": "function"
    },
    {
      "inputs": [],
      "name": "totalSupply",
      "outputs": [
        {
          "internalType": "uint256",
          "name": "",
          "type": "uint256"
        }
      ],
      "stateMutability": "view",
      "type": "function"
    },
    {
      "inputs": [
        {
          "internalType": "address",
          "name": "to",
          "type": "address"
        },
        {
          "internalType": "uint256",
          "name": "amount",
          "type": "uint256"
        }
      ],
      "name": "transfer",
      "outputs": [
        {
          "internalType": "bool",
          "name": "",
          "type": "bool"
        }
      ],
      "stateMutability": "nonpayable",
      "type": "function"
    },
    {
      "inputs": [
        {
          "internalType": "address",
          "name": "from",
          "type": "address"
        },
        {
          "internalType": "address",
          "name": "to",
          "type": "address"
        },
        {
          "internalType": "uint256",
          "name": "amount",
          "type": "uint256"
        }
      ],
      "name": "transferFrom",
      "outputs": [
        {
          "internalType": "bool",
          "name": "",
          "type": "bool"
        }
      ],
      "stateMutability": "nonpayable",
      "type": "function"
    }
  ],
  "bytecode": {
    "object": "0x60806040523480156200001157600080fd5b506040518060400160405280600881526020017f55534420436f696e0000000000000000000000000000000000000000000000008152506040518060400160405280600481526020017f555344430000000000000000000000000000000000000000000000000000000081525081818160039081620000919190620004e7565b508060049081620000a39190620004e7565b505050620000e533620000bb620000ed60201b60201c565b600a620000c991906200075e565b620f4240620000d99190620007af565b620000f660201b60201c565b5050620008e6565b60006006905090565b600073ffffffffffffffffffffffffffffffffffffffff168273ffffffffffffffffffffffffffffffffffffffff160362000168576040517f08c379a00000000000000000000000000000000000000000000000000000000081526004016200015f906200085b565b60405180910390fd5b6200017c600083836200026360201b60201c565b80600260008282546200019091906200087d565b92505081905550806000808473ffffffffffffffffffffffffffffffffffffffff1673ffffffffffffffffffffffffffffffffffffffff168152602001908152602001600020600082825401925050819055508173ffffffffffffffffffffffffffffffffffffffff16600073ffffffffffffffffffffffffffffffffffffffff167fddf252ad1be2c89b69c2b068fc378daa952ba7f163c4a11628f55a4df523b3ef83604051620002439190620008c9565b60405180910390a36200025f600083836200026860201b60201c565b5050565b505050565b505050565b600081519050919050565b7f4e487b7100000000000000000000000000000000000000000000000000000000600052604160045260246000fd5b7f4e487b7100000000000000000000000000000000000000000000000000000000600052602260045260246000fd5b60006002820490506001821680620002ef57607f821691505b602082108103620003055762000304620002a7565b5b50919050565b60008190508160005260206000209050919050565b60006020601f8301049050919050565b600082821b905092915050565b6000600883026200036f7fffffffffffffffffffffffffffffffffffffffffffffffffffffffffffffffff8262000330565b6200037b868362000330565b95508019841693508086168417925050509392505050565b6000819050919050565b6000819050919050565b6000620003c8620003c2620003bc8462000393565b6200039d565b62000393565b9050919050565b6000819050919050565b620003e483620003a7565b620003fc620003f382620003cf565b8484546200033d565b825550505050565b600090565b6200041362000404565b62000420818484620003d9565b505050565b5b8181101562000448576200043c60008262000409565b60018101905062000426565b5050565b601f821115620004975762000461816200030b565b6200046c8462000320565b810160208510156200047c578190505b620004946200048b8562000320565b83018262000425565b50505b505050565b600082821c905092915050565b6000620004bc600019846008026200049c565b1980831691505092915050565b6000620004d78383620004a9565b9150826002028217905092915050565b620004f2826200026d565b67ffffffffffffffff8111156200050e576200050d62000278565b5b6200051a8254620002d6565b620005278282856200044c565b600060209050601f8311600181146200055f57600084156200054a578287015190505b620005568582620004c9565b865550620005c6565b601f1984166200056f866200030b565b60005b82811015620005995784890151825560018201915060208501945060208101905062000572565b86831015620005b95784890151620005b5601f891682620004a9565b8355505b6001600288020188555050505b505050505050565b7f4e487b7100000000000000000000000000000000000000000000000000000000600052601160045260246000fd5b60008160011c9050919050565b6000808291508390505b60018511156200065c57808604811115620006345762000633620005ce565b5b6001851615620006445780820291505b80810290506200065485620005fd565b945062000614565b94509492505050565b6000826200067757600190506200074a565b816200068757600090506200074a565b8160018114620006a05760028114620006ab57620006e1565b60019150506200074a565b60ff841115620006c057620006bf620005ce565b5b8360020a915084821115620006da57620006d9620005ce565b5b506200074a565b5060208310610133831016604e8410600b84101617156200071b5782820a905083811115620007155762000714620005ce565b5b6200074a565b6200072a84848460016200060a565b92509050818404811115620007445762000743620005ce565b5b81810290505b9392505050565b600060ff82169050919050565b60006200076b8262000393565b9150620007788362000751565b9250620007a77fffffffffffffffffffffffffffffffffffffffffffffffffffffffffffffffff848462000665565b905092915050565b6000620007bc8262000393565b9150620007c98362000393565b9250828202620007d98162000393565b91508282048414831517620007f357620007f2620005ce565b5b5092915050565b600082825260208201905092915050565b7f45524332303a206d696e7420746f20746865207a65726f206164647265737300600082015250565b600062000843601f83620007fa565b915062000850826200080b565b602082019050919050565b60006020820190508181036000830152620008768162000834565b9050919050565b60006200088a8262000393565b9150620008978362000393565b9250828201905080821115620008b257620008b1620005ce565b5b92915050565b620008c38162000393565b82525050565b6000602082019050620008e06000830184620008b8565b92915050565b6115f280620008f66000396000f3fe608060405234801561001057600080fd5b50600436106100b45760003560e01c806370a082311161007157806370a08231146101a357806395d89b41146101d3578063a457c2d7146101f1578063a9059cbb14610221578063dd62ed3e14610251578063de5f72fd14610281576100b4565b806306fdde03146100b9578063095ea7b3146100d757806318160ddd1461010757806323b872dd14610125578063313ce567146101555780633950935114610173575b600080fd5b6100c161028b565b6040516100ce9190610ca3565b60405180910390f35b6100f160048036038101906100ec9190610d5e565b61031d565b6040516100fe9190610db9565b60405180910390f35b61010f610340565b60405161011c9190610de3565b60405180910390f35b61013f600480360381019061013a9190610dfe565b61034a565b60405161014c9190610db9565b60405180910390f35b61015d610379565b60405161016a9190610e6d565b60405180910390f35b61018d60048036038101906101889190610d5e565b610382565b60405161019a9190610db9565b60405180910390f35b6101bd60048036038101906101b89190610e88565b6103b9565b6040516101ca9190610de3565b60405180910390f35b6101db610401565b6040516101e89190610ca3565b60405180910390f35b61020b60048036038101906102069190610d5e565b610493565b6040516102189190610db9565b60405180910390f35b61023b60048036038101906102369190610d5e565b61050a565b6040516102489190610db9565b60405180910390f35b61026b60048036038101906102669190610eb5565b61052d565b6040516102789190610de3565b60405180910390f35b6102896105b4565b005b60606003805461029a90610f24565b80601f01602080910402602001604051908101604052809291908181526020018280546102c690610f24565b80156103135780601f106102e857610100808354040283529160200191610313565b820191906000526020600020905b8154815290600101906020018083116102f657829003601f168201915b5050505050905090565b6000806103286105e0565b90506103358185856105e8565b600191505092915050565b6000600254905090565b6000806103556105e0565b90506103628582856107b1565b61036d85858561083d565b60019150509392505050565b60006006905090565b60008061038d6105e0565b90506103ae81858561039f858961052d565b6103a99190610f84565b6105e8565b600191505092915050565b60008060008373ffffffffffffffffffffffffffffffffffffffff1673ffffffffffffffffffffffffffffffffffffffff168152602001908152602001600020549050919050565b60606004805461041090610f24565b80601f016020809104026020016040519081016040528092919081815260200182805461043c90610f24565b80156104895780601f1061045e57610100808354040283529160200191610489565b820191906000526020600020905b81548152906001019060200180831161046c57829003601f168201915b5050505050905090565b60008061049e6105e0565b905060006104ac828661052d565b9050838110156104f1576040517f08c379a00000000000000000000000000000000000000000000000000000000081526004016104e89061102a565b60405180910390fd5b6104fe82868684036105e8565b60019250505092915050565b6000806105156105e0565b905061052281858561083d565b600191505092915050565b6000600160008473ffffffffffffffffffffffffffffffffffffffff1673ffffffffffffffffffffffffffffffffffffffff16815260200190815260200160002060008373ffffffffffffffffffffffffffffffffffffffff1673ffffffffffffffffffffffffffffffffffffffff16815260200190815260200160002054905092915050565b6105de336105c0610379565b600a6105cc919061117d565b6103e86105d991906111c8565b610ab3565b565b600033905090565b600073ffffffffffffffffffffffffffffffffffffffff168373ffffffffffffffffffffffffffffffffffffffff1603610657576040517f08c379a000000000000000000000000000000000000000000000000000000000815260040161064e9061127c565b60405180910390fd5b600073ffffffffffffffffffffffffffffffffffffffff168273ffffffffffffffffffffffffffffffffffffffff16036106c6576040517f08c379a00000000000000000000000000000000000000000000000000000000081526004016106bd9061130e565b60405180910390fd5b80600160008573ffffffffffffffffffffffffffffffffffffffff1673ffffffffffffffffffffffffffffffffffffffff16815260200190815260200160002060008473ffffffffffffffffffffffffffffffffffffffff1673ffffffffffffffffffffffffffffffffffffffff168152602001908152602001600020819055508173ffffffffffffffffffffffffffffffffffffffff168373ffffffffffffffffffffffffffffffffffffffff167f8c5be1e5ebec7d5bd14f71427d1e84f3dd0314c0f7b2291e5b200ac8c7c3b925836040516107a49190610de3565b60405180910390a3505050565b60006107bd848461052d565b90507fffffffffffffffffffffffffffffffffffffffffffffffffffffffffffffffff81146108375781811015610829576040517f08c379a00000000000000000000000000000000000000000000000000000000081526004016108209061137a565b60405180910390fd5b61083684848484036105e8565b5b50505050565b600073ffffffffffffffffffffffffffffffffffffffff168373ffffffffffffffffffffffffffffffffffffffff16036108ac576040517f08c379a00000000000000000000000000000000000000000000000000000000081526004016108a39061140c565b60405180910390fd5b600073ffffffffffffffffffffffffffffffffffffffff168273ffffffffffffffffffffffffffffffffffffffff160361091b576040517f08c379a00000000000000000000000000000000000000000000000000000000081526004016109129061149e565b60405180910390fd5b610926838383610c09565b60008060008573ffffffffffffffffffffffffffffffffffffffff1673ffffffffffffffffffffffffffffffffffffffff168152602001908152602001600020549050818110156109ac576040517f08c379a00000000000000000000000000000000000000000000000000000000081526004016109a390611530565b60405180910390fd5b8181036000808673ffffffffffffffffffffffffffffffffffffffff1673ffffffffffffffffffffffffffffffffffffffff16815260200190815260200160002081905550816000808573ffffffffffffffffffffffffffffffffffffffff1673ffffffffffffffffffffffffffffffffffffffff168152602001908152602001600020600082825401925050819055508273ffffffffffffffffffffffffffffffffffffffff168473ffffffffffffffffffffffffffffffffffffffff167fddf252ad1be2c89b69c2b068fc378daa952ba7f163c4a11628f55a4df523b3ef84604051610a9a9190610de3565b60405180910390a3610aad848484610c0e565b50505050565b600073ffffffffffffffffffffffffffffffffffffffff168273ffffffffffffffffffffffffffffffffffffffff1603610b22576040517f08c379a0000000000000000000000000000000000000000000000000000000008152600401610b199061159c565b60405180910390fd5b610b2e60008383610c09565b8060026000828254610b409190610f84565b92505081905550806000808473ffffffffffffffffffffffffffffffffffffffff1673ffffffffffffffffffffffffffffffffffffffff168152602001908152602001600020600082825401925050819055508173ffffffffffffffffffffffffffffffffffffffff16600073ffffffffffffffffffffffffffffffffffffffff167fddf252ad1be2c89b69c2b068fc378daa952ba7f163c4a11628f55a4df523b3ef83604051610bf19190610de3565b60405180910390a3610c0560008383610c0e565b5050565b505050565b505050565b600081519050919050565b600082825260208201905092915050565b60005b83811015610c4d578082015181840152602081019050610c32565b60008484015250505050565b6000601f19601f8301169050919050565b6000610c7582610c13565b610c7f8185610c1e565b9350610c8f818560208601610c2f565b610c9881610c59565b840191505092915050565b60006020820190508181036000830152610cbd8184610c6a565b905092915050565b600080fd5b600073ffffffffffffffffffffffffffffffffffffffff82169050919050565b6000610cf582610cca565b9050919050565b610d0581610cea565b8114610d1057600080fd5b50565b600081359050610d2281610cfc565b92915050565b6000819050919050565b610d3b81610d28565b8114610d4657600080fd5b50565b600081359050610d5881610d32565b92915050565b60008060408385031215610d7557610d74610cc5565b5b6000610d8385828601610d13565b9250506020610d9485828601610d49565b9150509250929050565b60008115159050919050565b610db381610d9e565b82525050565b6000602082019050610dce6000830184610daa565b92915050565b610ddd81610d28565b82525050565b6000602082019050610df86000830184610dd4565b92915050565b600080600060608486031215610e1757610e16610cc5565b5b6000610e2586828701610d13565b9350506020610e3686828701610d13565b9250506040610e4786828701610d49565b9150509250925092565b600060ff82169050919050565b610e6781610e51565b82525050565b6000602082019050610e826000830184610e5e565b92915050565b600060208284031215610e9e57610e9d610cc5565b5b6000610eac84828501610d13565b91505092915050565b60008060408385031215610ecc57610ecb610cc5565b5b6000610eda85828601610d13565b9250506020610eeb85828601610d13565b9150509250929050565b7f4e487b7100000000000000000000000000000000000000000000000000000000600052602260045260246000fd5b60006002820490506001821680610f3c57607f821691505b602082108103610f4f57610f4e610ef5565b5b50919050565b7f4e487b7100000000000000000000000000000000000000000000000000000000600052601160045260246000fd5b6000610f8f82610d28565b9150610f9a83610d28565b9250828201905080821115610fb257610fb1610f55565b5b92915050565b7f45524332303a2064656372656173656420616c6c6f77616e63652062656c6f7760008201527f207a65726f000000000000000000000000000000000000000000000000000000602082015250565b6000611014602583610c1e565b915061101f82610fb8565b604082019050919050565b6000602082019050818103600083015261104381611007565b9050919050565b60008160011c9050919050565b6000808291508390505b60018511156110a15780860481111561107d5761107c610f55565b5b600185161561108c5780820291505b808102905061109a8561104a565b9450611061565b94509492505050565b6000826110ba5760019050611176565b816110c85760009050611176565b81600181146110de57600281146110e857611117565b6001915050611176565b60ff8411156110fa576110f9610f55565b5b8360020a91508482111561111157611110610f55565b5b50611176565b5060208310610133831016604e8410600b841016171561114c5782820a90508381111561114757611146610f55565b5b611176565b6111598484846001611057565b925090508184048111156111705761116f610f55565b5b81810290505b9392505050565b600061118882610d28565b915061119383610e51565b92506111c07fffffffffffffffffffffffffffffffffffffffffffffffffffffffffffffffff84846110aa565b905092915050565b60006111d382610d28565b91506111de83610d28565b92508282026111ec81610d28565b9150828204841483151761120357611202610f55565b5b5092915050565b7f45524332303a20617070726f76652066726f6d20746865207a65726f2061646460008201527f7265737300000000000000000000000000000000000000000000000000000000602082015250565b6000611266602483610c1e565b91506112718261120a565b604082019050919050565b6000602082019050818103600083015261129581611259565b9050919050565b7f45524332303a20617070726f766520746f20746865207a65726f20616464726560008201527f7373000000000000000000000000000000000000000000000000000000000000602082015250565b60006112f8602283610c1e565b91506113038261129c565b604082019050919050565b60006020820190508181036000830152611327816112eb565b9050919050565b7f45524332303a20696e73756666696369656e7420616c6c6f77616e6365000000600082015250565b6000611364601d83610c1e565b915061136f8261132e565b602082019050919050565b6000602082019050818103600083015261139381611357565b9050919050565b7f45524332303a207472616e736665722066726f6d20746865207a65726f20616460008201527f6472657373000000000000000000000000000000000000000000000000000000602082015250565b60006113f6602583610c1e565b91506114018261139a565b604082019050919050565b60006020820190508181036000830152611425816113e9565b9050919050565b7f45524332303a207472616e7366657220746f20746865207a65726f206164647260008201527f6573730000000000000000000000000000000000000000000000000000000000602082015250565b6000611488602383610c1e565b91506114938261142c565b604082019050919050565b600060208201905081810360008301526114b78161147b565b9050919050565b7f45524332303a207472616e7366657220616d6f756e742065786365656473206260008201527f616c616e63650000000000000000000000000000000000000000000000000000602082015250565b600061151a602683610c1e565b9150611525826114be565b604082019050919050565b600060208201905081810360008301526115498161150d565b9050919050565b7f45524332303a206d696e7420746f20746865207a65726f206164647265737300600082015250565b6000611586601f83610c1e565b915061159182611550565b602082019050919050565b600060208201905081810360008301526115b581611579565b905091905056fea2646970667358221220c40848ea79e1b2281787454a60c6b3e94f6ddb7bbab3ffadb91204ab7467500a64736f6c63430008130033",
    "linkReferences": {}
  },
  "methodIdentifiers": {
    "allowance(address,address)": "dd62ed3e",
    "approve(address,uint256)": "095ea7b3",
    "balanceOf(address)": "70a08231",
    "decimals()": "313ce567",
    "decreaseAllowance(address,uint256)": "a457c2d7",
    "faucet()": "de5f72fd",
    "increaseAllowance(address,uint256)": "39509351",
    "name()": "06fdde03",
    "symbol()": "95d89b41",
    "totalSupply()": "18160ddd",
    "transfer(address,uint256)": "a9059cbb",
    "transferFrom(address,address,uint256)": "23b872dd"
  },
  "id": 27
}